:020000040800F2
:10000000002A0020D1370008E9050008EB050008A8
:10001000EF050008F3050008F705000800000000E0
:10002000000000000000000000000000FB050008C8
:10003000FD05000800000000FF7F000851360008A1
:10004000EB370008EB370008EB370008EB37000808
:10005000EB370008EB370008EB370008EB370008F8
:10006000EB370008EB370008EB370008EB370008E8
:10007000EB370008EB370008EB370008EB370008D8
:10008000EB370008EB370008EB370008EB370008C8
:10009000EB370008EB370008EB370008EB370008B8
:1000A000EB370008EB370008EB370008EB370008A8
:1000B00079120008EB370008EB370008EB3700082F
:1000C000EB370008EB370008EB370008EB37000888
:1000D000EB3700085F140008131600087B170008B0
:1000E000EB370008EB370008EB370008EB37000868
:1000F000EB370008EB370008EB370008EB37000858
:10010000EB370008EB370008EB370008EB37000847
:10011000EB370008EB370008EB370008EB37000837
:10012000EB370008EB370008EB370008EB37000827
:1001300000F002F800F090F80AA090E8000C824469
:100140008344AAF10107DA4501D100F085F8AFF246
:10015000090EBAE80F0013F0010F18BFFB1A43F0A5
:100160000103184798B90000B8B90000103A24BF3D
:1001700078C878C1FAD8520724BF30C830C144BF0C
:1001800004680C607047000000230024002500264E
:10019000103A28BF78C1FBD8520728BF30C148BFEA
:1001A0000B6070476E2908F04283702908F0C28600
:1001B00066290BF0218365290BF01E8367290BF05C
:1001C0001B8361290BF01A8303681B0A28BF41F0C7
:1001D0008001692908F03280642908F02F80752990
:1001E00008F02C806F2908F04D86782908F08E865B
:1001F000E92908F0E585E42908F0E285F52908F009
:10020000DF85EF2908F04A86F82908F08D86036813
:10021000DB0928BF41F08001632908F05485732968
:1002200008F05985E32909F06581F32909F06A810D
:10023000002070471FB508F03FFF04000020002198
:100240000AF05CFC401C6060002000210AF040FCC9
:10025000E0601FBD10B510BD09F07CFA1146FFF734
:10026000E9FF00F087F809F0FBFC03B4FFF7F2FFA9
:1002700003BC01F09BF8000034E002F09CFA054654
:100280000BF09EF904460A22534900F071FF02F078
:1002900011FB05460BF094F904460A224F4900F081
:1002A00067FF02F086FB05460BF08AF904460A2236
:1002B0004B4900F05DFF00F069FD04460A22494900
:1002C00000F056FF00F01DFD04460A22464900F0EA
:1002D0004FFF0A224549002000F04AFF4FF4FA6020
:1002E00003F007FAC9E707E001F0B5FA03F0EDF80B
:1002F0004FF47A7003F0FDF9F6E707E001F0C5FE70
:1003000002F0CBFD4EF6602003F0F3F9F6E770B58E
:100310000446002500BF002006F0D7FF34490860DE
:1003200005F0CEFE01203349087033490860334997
:1003300008703349087007F03BFE05460423314A34
:100340000021AFF2490007F00CFA03232E4A0021E6
:10035000AFF26D0007F005FA02232C4A0021AFF23C
:10036000E70007F0FEF90A2007F07FFC284607F0B7
:1003700023FE70BD10B503F073F900F04FFF03F0DA
:10038000E1F900F044F94FF4E13001F01CF84FF4CA
:10039000E13001F0E9F84FF4165001F098F900F05F
:1003A000FBFB02F002FA03F002F900F059FA002018
:1003B00017490880174908701749087005F043FD70
:1003C0000A23164A0021AFF2B90007F0CAF905F076
:1003D0005FFE002010BD0000FD180020071900205E
:1003E00011190020DF180020E9180020F318002060
:1003F0000000002027000020200000202400002012
:1004000029000020F40F0020F4030020F40700204E
:100410001A000020180000202C000020F401002009
:1004200000210020674A126842F48032654B1A604E
:1004300000BF644A126802F40030491C10B9B1F5DB
:10044000A06FF6D15F4A126812F4003F01D001207C
:1004500000E00020012842D15B4A126842F01002FD
:10046000594B1A601A46126822F003021A601A46A3
:10047000126842F002021A60524A5268514B5A60A6
:100480001A4652685A601A46526842F480625A60AC
:100490001A46526822F47C125A601A46526842F494
:1004A000E8125A601A46126842F080721A6000BF61
:1004B000444A126812F0007FFAD0424A526822F091
:1004C0000302404B5A601A46526842F002025A60D8
:1004D00000BF3C4A526802F00C02082AF9D170476A
:1004E00010B5FFF79DFF10BD10B53648006840F00D
:1004F00001003449086008464068344908403149E1
:10050000486008460068324908402E49086008469D
:10051000006820F4802008600846406820F4FE004F
:1005200048604FF41F008860FFF7DAFF4FF000606B
:100530002849086010BD10B5002100200022214B81
:100540005B6803F00C0121B1042906D0082928D1E9
:1005500007E0214B214C236027E01F4B1F4C2360F9
:1005600023E0184B5B6803F47010164B5B6803F4D0
:100570008032022303EB904022B9194B4343174CBE
:1005800023600DE00F4B5B6813F4003F04D0144B65
:100590004343124C236003E00F4B43430F4C236053
:1005A00003E00D4B0D4C236000BF00BF054B5B68A3
:1005B000C3F303130B4CE15C084B1B68CB40074CA7
:1005C000236010BD00100240002002400000FFF830
:1005D000FFFFF6FE08ED00E000127A0004000020A4
:1005E00000093D0008000020704700BFFEE700BF83
:1005F000FEE700BFFEE700BFFEE770477047000060
:1006000010B54FF4F071294803F07DFA10BD08B51C
:100610000121082003F07CFC4FF47870ADF8000055
:1006200010208DF8030003208DF8020069461F4852
:1006300003F0BCF9FFF7E4FF08BD10B520211B480B
:1006400003F05FFA10BD10B52021184803F05BFAE3
:1006500010BD10B54021154803F053FA10BD10B578
:100660004021124803F04FFA10BD10B580210F4809
:1006700003F047FA10BD10B580210C4803F043FA8F
:1006800010BD10B54FF48071084803F03AFA10BD60
:1006900010B54FF48071054803F035FA10BD10B560
:1006A0004FF4F071014803F02CFA10BD000C01402A
:1006B0000146088870472DE9F04105460E46174669
:1006C000002407E036F81410284604F0FFFEAD1CA5
:1006D000601C84B2BC42F5DBBDE8F08130B5034656
:1006E0000C461546002207E01846FFF7E1FF24F804
:1006F00012009B1C501C82B2AA42F5DB30BD2DE9D2
:10070000F05F80468A461746B8F1006F02D337483B
:10071000804501D3BDE8F09F04F093FDA8F1006B84
:100720004FEA9B25CBF34809C9F50074A74200DCCA
:100730003C464DE04FF0006101EB85208A142C49C6
:10074000FFF7CCFF00260BE009EB0600284931F843
:100750001000A0F57F41FF3900D003E0701C86B285
:10076000A642F1DB00BFA6421BDA4FF0006101EBAD
:10077000852004F0ABFD002608E03AF8160006EBF1
:1007800009011B4A22F81100701C86B2A642F4DB54
:100790004FF0006101EB85208A141549FFF78BFFAC
:1007A00004E0224651464046FFF785FFA74200D1AC
:1007B0000FE06D1C4FF000090AEB440AA044381BFF
:1007C00087B2B7F5007F02DD4FF4007400E03C46CD
:1007D000B0E700BF04F041FD00BF9BE713B504463E
:1007E000012201A92046FFF78AFF1CBD0000020874
:1007F000F80F00202DE9F04104460F46154601266A
:1008000000F058FF0BE000BF40218B4803F092FD41
:100810000028F9D02178884803F01EFD641C207858
:100820000028F0D185A000F01CFF15B93046BDE8C6
:10083000F0810020824908808248057001208249A9
:10084000087007E03946814807F00EFE08B9012616
:1008500000E000267C4800783042F3D13046E6E7DD
:1008600010B500247AA000F03BFE42F2107002F0B6
:1008700040FF0DE07AA000F033FE4FF4487002F024
:1008800038FF7BA000F02CFE4FF4C87002F031FF5F
:1008900005227BA17BA0FFF7ADFF0028EAD1C8228B
:1008A00077A179A0FFF7A6FF01F096FB00B901241C
:1008B000012C4CD101F019FE012275497548FFF752
:1008C0000DFF7348027874497248FFF707FF7248BA
:1008D00007F000FE0A2808D970A000F001FE6E485B
:1008E00000F0FEFD55A000F0FBFD01226E496F48AF
:1008F000FFF7F4FE6C4802786D496C48FFF7EEFE96
:100900006B4807F0E7FD052808D96AA000F0E8FD6C
:10091000674800F0E5FD49A000F0E2FD01206849CC
:10092000087068A000F0DCFD06E06DA16E4807F0DD
:100930009BFD08B100F0C3FF614800780828F4DB94
:1009400000205F49087069A000F0CAFD08E006E0D9
:100950006BA000F0C5FD40F6B83002F0CAFEF7E724
:1009600010BD10B504462146384807F07DFD08B19A
:10097000012010BD0020FCE72DE9F04104460D46A2
:100980001646A04600F096FE002727E02846FFF70F
:10099000E8FFF8B92C48007800BB44460BE000BFE4
:1009A0004021254803F0C6FC0028F9D021782248D0
:1009B00003F052FC641C20780028F0D11FA000F046
:1009C00050FE00201E4908801E48067001201E4966
:1009D000087003E0012700201B490870002FD5D0C4
:1009E00000F068FEBDE8F08110B502224AA14DA0DA
:1009F000FFF700FF02224FA150A0FFF7FBFE0222EB
:100A00001FA151A0FFF7F6FE02221DA152A0FFF781
:100A1000F1FE02221AA153A0FFF7ECFE022218A158
:100A200053A0FFF7E7FE082215A155A0FFF7A4FF8A
:100A300056A000F016FE10BD004400400D0A000054
:100A40001A000020180000202C00002008160020AA
:100A5000B5C8B4FDC4A3BFE9C6F4B6AF0D0A000023
:100A6000CEB4BCECB2E2B5BDC4A3BFE90D0A000030
:100A7000D5FDD4DAB3A2CAD4C1ACBDD30D0A0000EF
:100A80004F4B00004154000041544530000000002D
:100A90007800002000F6010876180020BBF1C8A1FC
:100AA000B5BD6970203A00007A00002000F301080B
:100AB00088170020B6C1C8A16964203A0000000070
:100AC000280000200D0AC4E3D3D03573D6D3BDF877
:100AD000C8EBB9A4B3A7C4A3CABD0D0A00000000A7
:100AE000B9A4B3A700000000881500200D0ABDF8C6
:100AF000C8EBD5FDB3A3C4A3CABD0D0A0000000016
:100B0000C7EBB2E573696DBFA82CB2A2D6D8C6F404
:100B100021212121210D0A00434C4F5345204F4BE9
:100B20000000000041542B434950434C4F53453D76
:100B30003000000053485554204F4B0041542B4384
:100B4000495053485554000041542B4347434C41AE
:100B500053533D224222000041542B4347415454F9
:100B60003D31000041542B4349504D55583D310013
:100B700041542B435354543D22434D4E455422007F
:100B800041542B43494943520000000041542B4338
:100B9000494653520D0A000000B587B001214FF4B9
:100BA000047003F0B5F94FF4004003F018F9072082
:100BB000ADF8040000208DF8070001A9964802F066
:100BC000F5FE964804F0F8FD002002908DF80C0028
:100BD0008DF80D004FF46020049000200590012056
:100BE0008DF8180002A98D4804F00DFE01218B48F4
:100BF00004F035FE894804F054FE00BF874804F035
:100C000055FE0028FAD1854804F05AFE00BF8348FB
:100C100004F05BFE0028FAD107B000BD10B5044611
:100C20000723012221467D4804F085FE01217B48EF
:100C300004F055FE00BF0221784804F0ABFF002805
:100C4000F9D0764804F0DEFE10BD2DE9F0410746EC
:100C50000C460025002608E03846FFF7DFFF054474
:100C6000052002F046FD701CC6B2A642F4DBB5FBBF
:100C7000F4F080B2BDE8F0812DE9F04F87B01E217D
:100C80000A20FFF7E2FF069006980AF0D5FC80469E
:100C90000AF06AFC06464FF06632614B0AF046FAEB
:100CA000044609F041FF82465E4950460AF0D8FCEE
:100CB00006460AF059FC044622460B465AA101A8F2
:100CC00007F054FA574950460AF0CAFC00900AF05F
:100CD0004BFC80460022564B0AF05CFB0646554A08
:100CE000554B0AF00FF8044609F01EFF834653499E
:100CF0000AF0B6FC824650460AF07EFC07B0BDE81A
:100D0000F08F2DE9F04F87B01E210B20FFF79DFFDC
:100D1000069006980AF090FC80460AF025FC0646EC
:100D20004FF066323E4B0AF001FA044609F0FCFE31
:100D300082463C4950460AF093FC06460AF014FCF1
:100D4000044622460B4638A101A807F00FFA3549A0
:100D500050460AF085FC00900AF006FC804600220E
:100D6000334B0AF017FB0646324A334B09F0CAFFF1
:100D7000044609F0D9FE834630490AF071FC8246E8
:100D800050460AF039FC07B0BDE8F08F2DE9F04F6E
:100D900089B01E210C20FFF758FF089008980AF030
:100DA0004BFC80460AF0E0FB06464FF066321C4BD7
:100DB0000AF0BCF904460D460022214B2046294684
:100DC0000AF0B4F9064632460B4617A103A807F00D
:100DD000CDF900221A4B204629460AF0A7F9804691
:100DE0000022134B0AF0D6FA0646124A124B09F0BB
:100DF00089FF824609F098FE104901900AF030FC04
:100E000002900AF0B1FB04460D46204629460AF03E
:100E10000DF909B0BDE8F08F001001400024014039
:100E200066664A3F0000304125322E3266000000DF
:100E30000000E03F075F984C158C12400050C347FC
:100E40000000264030B50346002129E05C5C04F038
:100E50000F02202501EB4104A41C0555092A07DDDA
:100E600002F13704E5B201EB4104641C055506E0CC
:100E700002F13004E5B201EB4104641C05555C5CF1
:100E80002209092A05DD02F1370401EB4105445529
:100E900004E002F1300401EB410544554C1CE1B281
:100EA0005C5C002CD2D101EB4105445530BD0146BC
:100EB0000A2905DB0F2903DC01F13700C0B27047B6
:100EC00001F13000C0B2FAE7F0B504460A4600234B
:100ED0000020106011E02046E11704EB11710911A8
:100EE000A4EB01173846FFF7E2FF19465B1C50548C
:100EF0002046E11704EB11710C11002CEBD1012BF2
:100F000005D10020FFF7D3FF19465B1C5054032B7B
:100F100005D10020FFF7CBFF19465B1C5054052B71
:100F200005D10020FFF7C3FF19465B1C5054002574
:100F30005E1E06E00020505D915D515590556D1C80
:100F4000761E03EBD371B5EB610FF3DB0020D054B9
:100F5000F0BDF0B504460A4600230020106011E001
:100F60002046E11704EB11710911A4EB0117384673
:100F7000FFF79DFF19465B1C50542046E11704EB18
:100F800011710C11002CEBD1012B05D10020FFF7C2
:100F90008EFF19465B1C5054032B05D10020FFF730
:100FA00086FF19465B1C5054052B05D10020FFF726
:100FB0007EFF19465B1C505400255E1E06E0002093
:100FC000505D915D515590556D1C761E03EBD371AC
:100FD000B5EB610FF3DB0020D054F0BD10B5014636
:100FE000002000220EE08C5C392C03DC8C5C303C51
:100FF000E3B202E08C5C573CE3B203EB0014E0B2D6
:10100000541CE2B28C5C002CEDD110BD30B5024610
:101010000023002000BF09E000EB8004600012F80C
:10102000014B303C0444E0B25C1CE3B28B42F3DB86
:1010300030BD02780B7803700A707047F0B5074630
:101040000D4600240AE00A2097FBF0F100FB117026
:10105000303028550A2097FBF0F7641C002FF2D19E
:10106000002028552646002406E0AA19121B511E0E
:101070002819FFF7DEFF641C06EBD671B4EB610F95
:10108000F3DB0020A855F0BDF0B50346002000BFFB
:101090002AE00E5C34110E5C06F00F050E5C0EB9F2
:1010A0000E5CFEB9092C06DD0E5C372707EB261611
:1010B00003F8106005E00E5C302707EB261603F8F6
:1010C0001060092D07DD0E5C06F00F06373647006D
:1010D0007F1CDE5506E00E5C06F00F06303647003A
:1010E0007F1CDE55461CF0B29042D2DB0027460042
:1010F000B61C9F55F0BD01460020002905DB0929DB
:1011000003DC01F13002D0B206E00A2904DB0F292A
:1011100002DC01F13702D0B270472DE9F0410546FB
:101120000C464FF0000805B11CB94FF0FF30BDE888
:10113000F081284607F0CEF910B96FF00100F6E70C
:1011400010E095F800804FEA281608F00F073046A7
:10115000FFF7D1FF04F8010B3846FFF7CCFF04F886
:10116000010B6D1C28780028EBD1207000BFDEE752
:101170002DE9F04F85B081460C469246142222A1FB
:10118000684607F017FA0026BAF10A0F09D1B9F13B
:10119000000F06DAC9F100072D223046761C2254D2
:1011A00000E04F4600BFB7FBFAF00AFB10701DF8D5
:1011B00000203046761C2254B7FBFAF7002FF2D1FC
:1011C0000020A05520782D2802D14FF0010801E021
:1011D0004FF0000845460CE014F805B0701E40447E
:1011E000401B205C6055701E4044401B04F800B05A
:1011F0006D1C701E00EBD071B5EB610FECDD20466D
:1012000005B0BDE8F08F0000303132333435363769
:101210003839414243444546000000001FB50121D2
:10122000084602F082FE42F20F70ADF8080041F667
:101230001F40ADF804000020ADF80A00ADF806002C
:1012400001A94FF0804003F0A3F91C208DF80000A5
:1012500001208DF801008DF802008DF8030068462A
:1012600002F0DBFA01221146900703F008FD01218C
:10127000880703F0E9FC1FBD10B50121880703F0C2
:10128000ACFF002875D00121880703F0B7FF39486B
:10129000007828B1FFF7F5F900203649087004E01E
:1012A000FFF7F6F901203349087033480068012838
:1012B00004DB31480068401C2F4908602F48007843
:1012C000012804DB2D480078401C2C4908702C486C
:1012D0000078012804DB2A480078401C284908705F
:1012E00028480078012804DB26480078401C25495E
:1012F000087025480078012804DB23480078401C4A
:101300002149087021480078012804DB1F48007833
:10131000401C1E4908701E48007820B11D480088F6
:10132000401C1C4908801B4800881B4909788842DA
:1013300004DD002016490870164908801748007817
:10134000401C1649087016480078401C1449087063
:101350001448008830F400400BD013480078401C3B
:101360001149087008460078C82802DB00200D49A2
:10137000088010BD31000020200000202400002043
:10138000260000202700002028000020290000203F
:101390002C0000201A000020180000201D00002052
:1013A0001E000020340000201C00002000BF7047F9
:1013B00000BFFE4A128812F0400FFAD0C2B2FB4BB7
:1013C0001B1D1A80704710B586B00446012144F2F7
:1013D000050002F09DFD4FF40070ADF814000320ED
:1013E0008DF8160018208DF8170005A9F04802F0B6
:1013F000DDFA4FF48060ADF8140004208DF817007A
:1014000005A9EB4802F0D2FA25208DF80000032050
:101410008DF801008DF8020001208DF80300684668
:1014200002F0FBF901940020ADF80800ADF80A00C5
:10143000ADF80C00ADF810000C20ADF80E0001A9BD
:10144000DA4802F010FE012240F22551D74802F09E
:10145000A2FE0121D54802F092FE06B010BD10B5E3
:1014600004F007FD40F22551D04802F079FF10B397
:10147000CE4802F0F5FEC4B2CE48008810F4004F0A
:101480002BD1CC48008810F4804F0CD00A2C03D00C
:101490000020C849088020E0C648008840F4004089
:1014A000C449088019E00D2C06D1C248008840F4D8
:1014B0008040C049088010E0BE480088C0F30D009D
:1014C000BD490C54BB480088401CBA4908800846F6
:1014D00000887F2801DD0020088004F0E5FC10BDB5
:1014E00010B504460BE000BF4021B04802F022FFD7
:1014F0000028F9D014F8011BAC4802F0ADFE2078AA
:101500000028F0D110BD10B5044600BF4021A74807
:1015100002F010FF0028F9D02146A44802F09CFEFA
:1015200010BD70B504460D4684B10DE000BF4021EA
:101530009E4802F0FFFE0028F9D014F8011B9B48DA
:1015400002F08AFE681EC5B2002DEFD170BD0020EA
:1015500004E00021984A1154411C88B28028F8DB2D
:101560000021964A1170704710B586B004460121DB
:10157000480402F0DAFC0121042002F0C9FC904882
:1015800002F02EFD0420ADF8140018208DF817008D
:1015900003208DF8160005A9854802F007FA0820F7
:1015A000ADF8140004208DF8170005A9804802F05A
:1015B000FDF901940020ADF80800ADF80A00ADF87F
:1015C0000C00ADF810000C20ADF80E0001A97C480D
:1015D00002F049FD26208DF8000001208DF8010061
:1015E00000208DF8020001208DF80300684602F00B
:1015F00014F9012240F22551714802F0CCFD01217D
:101600006F4802F0BCFD40216D4802F0A0FE06B01C
:1016100010BD10B5002400206A490870684802F027
:101620001FFEC4B26848654909784454634800788D
:10163000401C6249087008460078B0F5807F01DDE3
:101640000020087010BD10B5044600BF40215C4862
:1016500002F070FE0028F9D02146594802F0FCFD46
:1016600010BD10B504460BE000BF4021544802F005
:1016700061FE0028F9D014F8011B514802F0ECFD7E
:1016800020780028F0D110BD70B504460D4684B115
:101690000DE000BF40214A4802F04CFE0028F9D07E
:1016A00014F8011B464802F0D7FD681EC5B2002D94
:1016B000EFD170BD002004E00021434A1154411CC9
:1016C00088B2FF28F8DD00213C4A1170704710B540
:1016D00086B004460121880402F027FC012109207C
:1016E00002F016FC394802F07BFC4FF48060ADF844
:1016F000140018208DF8170003208DF8160005A996
:10170000334802F053F94FF40060ADF814000420A0
:101710008DF8170005A92E4802F048F90194002021
:10172000ADF80800ADF80A00ADF80C00ADF81000F7
:101730000C20ADF80E0001A9244802F094FC2720EB
:101740008DF8000000208DF801008DF802000120C6
:101750008DF80300684602F060F8012240F225513E
:101760001A4802F018FD0121184802F008FD402136
:10177000164802F0ECFD06B010BD10B500240020A4
:1017800014490870114802F06BFDC4B21248017888
:101790000078401C104A10701048445410460178DC
:1017A0000078401C1070C8291DDD19E00038014088
:1017B0000008014034000020881500203900002076
:1017C000004400401D000020081600200048004092
:1017D000000C01401E0000203800002008170020E7
:1017E00000201146087010BD10B5044600BF40210E
:1017F0001F4802F09FFD0028F9D021461C4802F046
:101800002BFD10BD10B504460BE000BF4021184869
:1018100002F090FD0028F9D014F8011B144802F0E2
:101820001BFD20780028F0D110BD70B504460D4690
:1018300084B10DE000BF40210D4802F07BFD00287F
:10184000F9D014F8011B0A4802F006FD681EC5B263
:10185000002DEFD170BD002004E00021054A115495
:10186000411C88B2FF28F8DD0021034A117070473F
:101870000048004008170020380000202DE9F04102
:1018800005460E460127002409E0285D302803DBC9
:10189000285D392800DC01E0002700BF641C2846D1
:1018A00006F018FEA042F0D8284606F013FEB0421B
:1018B00003D117B10120BDE8F0810020FBE72DE93D
:1018C000F047CEB04FF00008C1460A27CDA0FFF781
:1018D00007FEDAA0FFF704FEE2A0FFF701FEEBA08F
:1018E000FFF7FEFDF0A0FFF7FBFDF5A0FFF7F8FD09
:1018F000F9A0FFF7F5FD17E3FE48008810F4004F4C
:1019000041D0FC480088C0F30D00FB490880084620
:101910000088FE2801DDFE2008800020F5490880AF
:10192000F6A1F84806F0A0FD10B14FF0030836E02C
:10193000F5A1F44806F098FD10B14FF001082EE033
:10194000F3A1F04806F090FD10B14FF0020826E038
:10195000F1A1EC4806F088FD10B14FF004081EE03C
:10196000EFA1E84806F080FD10B14FF0050816E041
:10197000EEA1E44806F078FD10B14FF006080EE045
:101980004FF000080BE0B9F1010F08D14FF000094A
:10199000E8A0FFF7A5FD01204EB0BDE8F087B8F143
:1019A000070F05D2DFE808F00405BDDDE0FDFC000F
:1019B000B9E2E6A1D34806F057FD28B9E5A1D14820
:1019C00006F052FD00287DD0E3A1E74806F05EFD59
:1019D000C9480088021FCB49091DE3480C3006F0B6
:1019E000A4FD0021E04AC44800880C301154104680
:1019F00006F070FDDD49087000240BE0DA48005D58
:101A00002C2801D1781CC7B20D2F01D126460A27F8
:101A1000601CC4B2B84800880C308442EEDB00255C
:101A2000152407E0D048005DD1494855601CC4B278
:101A3000681CC5B2701EA042F4DC0021CC4A681CB0
:101A400011540025701CC4B207E0C748005DC949A5
:101A50004855601CC4B2681CC5B2A74800880C3049
:101A60008442F2DB0021C34A681C1154BE48FFF7D0
:101A700037FDBD4806F02EFD1FFA80FA5246BA49DE
:101A8000BD48FEF73CFE012201A9BB48FEF726FE39
:101A90009DF8042002A9B848FEF720FEB7A0FFF782
:101AA0001FFD02A8FFF71CFD02A9B94806F0EEFCD5
:101AB000B8A0FFF715FDAE48FFF712FD68A0FFF7CD
:101AC0000FFD00E023E0B6A0FFF70AFDA948FFF7ED
:101AD00007FD63A0FFF704FDFFF739FDA24806F0FC
:101AE000F9FC82465146A04806F096FD01A806F092
:101AF000F1FC8246514601A806F0B0FD02A806F0AE
:101B0000E9FC8246514602A806F0A8FD02E0A6A024
:101B1000FFF7E6FC1421944806F07EFD4FF0000824
:101B200001E275480088821F7649891DA34806F0A6
:101B3000FCFC002170480088801FA04A11546E48A8
:101B40000088401F82B29D499D48FEF7D8FD9DA0A8
:101B5000FFF7C6FC80216B4806F05EFD4FF00008E1
:101B6000E1E14FF00109DEE163480088821F654929
:101B7000891D984806F0D9FC00215F480088801F25
:101B8000944A11540B211046FFF778FE90B15A4841
:101B90000088401F82B28F498F48FEF7B0FD01E0F8
:101BA00013E011E08DA0FFF79BFC8021554806F063
:101BB00033FD06E08DA0FFF793FC8021514806F02D
:101BC0002BFD4FF00008AEE1ADE18FA14D4806F0CE
:101BD0004BFC28B95FA14B4806F046FC00280FD00B
:101BE0005DA135A806F052FC43480088021F454914
:101BF000091D1FA806F099FC00211CAA3E4807E118
:101C00008AE1000040404040404040404040404069
:101C10004040C4FAD2D1BDF8C8EBB9A4B3A7C4A35D
:101C2000CABD4040404040404040404040404040AD
:101C3000404040404040400D0A000000B3B5BCD1D8
:101C4000302C22544350222C223132352E38392E5A
:101C500031382E3739222C3132333435BBD8B3B535
:101C60000D0A0000BAD3C4CF312C22544350222C89
:101C7000223132352E38392E31382E3739222C3157
:101C800032333435BBD8B3B50D0A0000C9E8B1B85A
:101C9000BAC5323339383238333738393237BBD8AE
:101CA000B3B50D0A00000000CAD6BBFABAC5313878
:101CB000353736343232323931BBD8B3B50D0A003C
:101CC000B3A7BCD2B1E0C2EB2B636A30312BBBD8D7
:101CD000B3B50D0A00000000CDCBB3F6B9A4B3A78D
:101CE000C4A3CABDA3BACDCBB3F62BBBD8B3B50D35
:101CF0000A0000003400002040000020CDCBB3F6E5
:101D00000000000088150020B3B5BCD10000000021
:101D1000C9E8B1B8BAC50000CAD6BBFABAC5000056
:101D2000B3A7BCD2B1E0C2EB00000000BAD3C4CF6D
:101D300000000000D5FDD4DACDCBB3F6B9A4B3A72B
:101D4000C4A3CABD2E2E2E2E0D0A0000302C225404
:101D5000435022005544500041542B4349505354A2
:101D60004152543D00000000B01700204200002006
:101D7000C4170020E217002000F601080D0A666C67
:101D8000617368B6C1B3F6C0B4B5C4A3BA000000AD
:101D9000761800200A6970B5D8D6B73A200000003E
:101DA0000AB6CBBFDA3A2000C4FAB5C46970B8F1FC
:101DB000CABDB4EDCEF30D0A000000008817002064
:101DC00000F30108C9E8B1B8BAC5D2D1B1A3B4E6ED
:101DD0000D0A00009C17002000F20108CAD6BBFAC9
:101DE000BAC5D2D1B1A3B4E60D0A0000CAD6BBFA77
:101DF000BAC5CAE4C8EBD3D0CEF32CC7EBD6D8D043
:101E0000C2CAE4C8EB0D0A00312C22544350220010
:101E100000880C3011541CA806F05CFBFE490870C9
:101E200000240BE01CA8005D2C2801D1781CC7B24F
:101E30000D2F01D126460A27601CC4B2F74800883E
:101E40000C308442EEDB0025152407E01CA8005D61
:101E5000F3494855601CC4B2681CC5B2701EA0424C
:101E6000F4DC0021EE4A681C11540025701CC4B239
:101E700007E01CA8005DEB494855601CC4B2681C13
:101E8000C5B2E64800880C308442F2DB0021E54A06
:101E9000681C11541CA8FFF723FBDF4802781CA91B
:101EA000E148FEF72CFC01221BA9DF48FEF716FCD7
:101EB0009DF86C2035A9DC48FEF710FCAFF2441009
:101EC000FFF70EFB35A8FFF70BFBAFF23810FFF75B
:101ED00007FBD348FFF704FBAFF27C20FFF700FBC2
:101EE000AFF24410FFF7FCFACE48FFF7F9FAAFF271
:101EF0009020FFF7F5FA8021CC4806F08DFB642195
:101F00001CA806F0ABFB642135A806F0A7FB002057
:101F10001B90FFF71CFB03E0AFF27410FFF7E0FA31
:101F20004FF0000800BF00BFE6E470B5FFF7C2FB4A
:101F3000BFA0FFF7D5FA0522C5A1C6A0FEF75AFC3F
:101F400088B9C6A0FFF7CCFAAFF2EC21C64806F07C
:101F50008BFA0446C448801E201AC1B2C248FFF75B
:101F6000E0FAFFF7A7FB0522B9A1C0A0FEF742FCEB
:101F700088B9C0A0FFF7B4FAAFF21C31BA4806F036
:101F800073FA0446B848801E201AC1B2B648FFF75B
:101F9000C8FAFFF78FFB0222B9A1BBA0FEF72AFC0B
:101FA000C8B9BBA0FFF79CFABCA1AF48801E06F0E1
:101FB0005BFA0446B9A1601C06F056FA0546B7A1C3
:101FC000681C06F051FA04460B21601CFFF7A9FAC1
:101FD000FFF770FB00BF70BD70B50025FFF76AFB0F
:101FE00003229BA1AEA0FEF705FC20B1AFA0FFF736
:101FF00077FA45F00105032295A1B3A0FEF7FAFB9D
:10200000C8B9A6A19848801E06F02EFA0446A4B1CD
:10201000A2A1601C06F028FA0646AEA0FFF760FAFF
:10202000301B401EC1B2601CFFF77BFAAFF2D0300C
:10203000FFF756FA01E045F00205FFF73BFB0322EC
:1020400083A1A6A0FEF7D6FBC8B986A18648801E4C
:1020500006F00AFA0446A4B1A2A1601C06F004FA34
:102060000646A1A0FFF73CFA301B801EC1B2A01C9F
:10207000FFF757FAAFF21840FFF732FA01E045F0E8
:102080000405FFF717FB284670BD2DE9F04F8DB012
:1020900000200A900B900C900890099007900590F2
:1020A0000690049002900390012092490870052246
:1020B00067A191A0FEF760FC93A006F04BF804E244
:1020C00094A16948801E06F0CFF98346BBF1000F4A
:1020D00001D0012000E000200028F0D0AFF28041C4
:1020E000584606F0C1F98246BAF1000F01D001202E
:1020F00000E000200028E2D00F21884806F08CFA8A
:10210000874800210160416001818648016041608B
:10211000018185480160017100208AF8000071A1E9
:10212000584606F09BF982466EA1002006F096F90B
:102130008246504606F0CEF90A280DD151460AA82B
:1021400006F0A4F979A0FFF7CBF90AA8FFF7C8F9C0
:10215000AFF2F440FFF7C4F962A1002006F07EF967
:10216000824674A1504606F07FF90028A7D072A0DD
:10217000FFF7B6F95BA1002006F070F982465046E1
:1021800006F0A8F9092833D1BAF8000007905046A4
:1021900006F0A0F9841E22460AF1020105A806F005
:1021A000C4F907A806F04CF9804608F06CFF044615
:1021B0000D4605A808F00AFC80460022624B08F094
:1021C000A1FD064622462B4608F0E0FC02460B46DF
:1021D000CDE900015DA1534805F0C8FF5DA0FFF700
:1021E0007FF95048FFF77CF9AFF28C50FFF778F990
:1021F0003CA1002006F032F9824658A0FFF770F9A2
:102200005046FFF76DF9AFF2A850FFF769F935A115
:10221000002006F023F9A5E0420000204000002045
:10222000C4170020E217002000FA010888150020DA
:10223000C9FAB2FAC9CC3AC9EEDBDACAD0B3B5BC36
:10224000D1BFC6BCBCD3D0CFDEB9ABCBBE0D0A006C
:102250004F4B000041542B43474D4D00C4A3BFE9F1
:10226000D0CDBAC53A0000000A16002041542B43D5
:1022700047534E00B2FAC6B7D0F2C1D0BAC53A0041
:102280002B434E554D00000041542B434E554D00FD
:10229000B1BEBBFABAC5C2EB3A0000002200000092
:1022A00041542B4350494E3F00000000C7EBBCECAB
:1022B000B2E9CAD6BBFABFA8CAC7B7F1D3D0B2E554
:1022C000C8EB0D0A0000000041542B434F50533F10
:1022D00000000000D4CBD3AAC9CC3A0041542B4310
:1022E000535100002C000000D0C5BAC5D6CAC1BFEA
:1022F0003A0000002400002041542B43474E535421
:1023000053543D31000000006F70656E206770739C
:10231000000000004750524D43000000B21800205A
:10232000C1180020CB1800207C000020CAB1BCE4FA
:102330003A000000410000000D0A20475053204F92
:102340004B200D0A0000000000004E40252E35668F
:1023500000000000CEB3B6C83A000000B7BDCFF20F
:102360003A0000008246504606F0B4F80A2839D1F7
:10237000BAF80000ADF810009AF802008DF81200CB
:10238000504606F0A7F8C41E22460AF1030102A82F
:1023900006F0CBF804A806F053F8019008F073FE9D
:1023A00004460D4602A808F011FB00229D4BCDE922
:1023B000000108F0A7FC064622462B4608F0E6FB83
:1023C000804642460B46AFF27C01974805F0CEFEB0
:1023D00096A0FFF785F89448FFF782F8AFF2807077
:1023E000FFF77EF8AFF20411002006F037F88246BE
:1023F000AFF21011002006F031F88246504606F088
:102400001FF800281EDB504606F01AF8B0F57A7F58
:1024100018DC504608F0DAFA0446864A864B08F083
:1024200085FE064632460B4684A1864805F09EFE90
:1024300085A0FFF755F88348FFF752F8AFF2E07038
:10244000FFF74EF8AFF26411002006F007F882465D
:1024500051467F4806F01AF87EA0FFF741F8504633
:10246000FFF73EF8AFF60800FFF73AF8AFF28C112D
:10247000002005F0F3FF8246504606F02BF80628B0
:102480000DD1514608A806F001F874A0FFF728F80E
:1024900008A8FFF725F8AFF63800FFF721F87148D4
:1024A000BDF824100180BDF822104180BDF8201035
:1024B0008180BDF82810C180BDF82A100181BDF8C7
:1024C0002C104181FFF7F6F804E0674800780328F4
:1024D0007FF7F6AD00BF0522AFF28C2163A0FEF7B7
:1024E0004BFA01200DB0BDE8F08F10B50522AFF218
:1024F000A02162A0FEF740FA64A0FEF7F1FF64207D
:1025000001F0F7F80222AFF2B82167A0FEF734FA23
:10251000FFF7D0F810BD10B5684805F0DBFF0446A2
:102520002146664806F078F8654805F0D3FF044672
:102530002146634806F070F8624805F0CBFF044678
:102540002146604806F068F85F4805F0C3FF04467E
:1025500021465D4806F060F85C4805F0BBFF044684
:1025600021465A4806F058F8594805F0B3FF04468A
:102570002146574806F050F850483A4949880180AA
:102580004F483849898801804E483649C9880180BA
:102590004D483449098901804C48324949890180B4
:1025A0004B483049898901804A494448FEF7B5FDC6
:1025B00049494348FEF7B1FD48494248FEF7ADFDA1
:1025C00047494148FEF7A9FD46494048FEF7A5FDA9
:1025D00045493F48FEF7A1FD384805F0AFFD2AA068
:1025E00005F0B8FD364805F0A9FD27A005F0B2FDBD
:1025F000344805F0A3FD24A005F0ACFD324805F0F9
:102600009DFD21A005F0A6FD304805F097FD1EA018
:1026100005F0A0FD2E4805F091FD1BA005F09AFDE8
:1026200010BD000000004E40C1180020BEADB6C86D
:102630003A0000006F1283C0CAA1FD3F252E31660B
:1026400000000000D5180020CBD9B6C83A00000021
:102650007C000020B7BDCEBBBDC73A007574633A9D
:1026600000000000B21800202400002041542B4339
:10267000474E535453543D300000000041542B4307
:10268000474E535057523D310D0A000053494D38C3
:102690003038C4A3BFE9D5FDD4DAB6A8CEBB2E2E00
:1026A0002E2E0D0A0000000041542B43474E535379
:1026B00045513D22524D43220D0A00004F0000209B
:1026C000510000205300002055000020570000203A
:1026D0005900002043000020450000204700002052
:1026E000490000204B0000204D000020002106E0A2
:1026F0000A2100BF0A00A1F1010399B2FAD1020038
:10270000A0F1010398B2F3D1704710B50121042064
:1027100001F0FEFB0121042001F0FAFB012104205D
:1027200001F0F6FB0121102001F0F2FB0121042051
:1027300001F0EEFB10BD08B54020ADF800004820C8
:102740008DF803006946DB4801F030F91020ADF840
:1027500000008DF8030001208DF802006946D5487D
:1027600001F024F98020ADF8000010208DF803005E
:1027700001208DF802006946CE4801F017F94FF4A8
:102780008070ADF8000010208DF8030001208DF856
:1027900002006946C84801F009F92020ADF80000A0
:1027A0006946C44801F002F908BD10B5FFF7ADFF56
:1027B000FFF7C1FF10BD2DE9FC470024A246A1464A
:1027C0001021BC4801F09FF92021BA4801F09BF983
:1027D00000BF14E064002021B64801F092F94021C6
:1027E000B44801F074F9012802D144F0010400E07A
:1027F00000BF2021AF4801F086F909F10109B9F1C4
:10280000200FE7DB1021AB4801F07BF94FF0000906
:1028100005E04FF47A70FFF769FF09F10109B9F19A
:10282000640FF6DB43F6FF7000EA944A4FEA8A0031
:102830000FFA80FA504608F026FC074600229F4B0C
:1028400008F074FC054600229D4B08F05BFACDE9C8
:10285000000108F069F99B490860C4F30B1A4FEABC
:102860000A100FFA80FA504608F00DFC05460022C7
:10287000954B08F05BFC07460022944B08F042FAA7
:10288000CDE9000108F050F99149086004F0010019
:1028900090490870C4F340008F490870C4F3800069
:1028A0008E490870C4F300408D490870854800685F
:1028B000BDE8FC872DE9FC470024A246A146802103
:1028C0007C4801F020F920217A4801F01CF900BF72
:1028D00014E064002021774801F013F94021754885
:1028E00001F0F5F8012802D144F0010400E000BF36
:1028F0002021704801F007F909F10109B9F1200F11
:10290000E7DB80216B4801F0FCF84FF0000905E09F
:102910004FF47A70FFF7EAFE09F10109B9F1640F8B
:10292000F6DB43F6FF7000EA944A4FEA8A000FFA9A
:1029300080FA504608F0A7FB074600225F4B08F0DC
:10294000F5FB054600225E4B08F0DCF9CDE90001FD
:1029500008F0EAF863490860C4F30B1A4FEA0A105A
:102960000FFA80FA504608F08EFB05460022564BBF
:1029700008F0DCFB07460022544B08F0C3F9CDE910
:10298000000108F0D1F85849086004F001005149ED
:102990000870C4F3400050490870C4F380004F49E8
:1029A0000870C4F300404E4908704E480068BDE806
:1029B000FC872DE9FC470024A246A1464FF4807114
:1029C0003D4801F0A0F820213A4801F09CF800BFF2
:1029D00014E064002021374801F093F84021354885
:1029E00001F075F8012802D144F0010400E000BFB5
:1029F0002021304801F087F809F10109B9F1200FD1
:102A0000E7DB4FF480712C4801F07BF84FF00009B0
:102A100005E04FF47A70FFF769FE09F10109B9F199
:102A2000640FF6DB43F6FF7000EA944A4FEA8A002F
:102A30000FFA80FA504608F026FB074600221F4B8B
:102A400008F074FB054600221D4B08F05BF9CDE948
:102A5000000108F069F825490860C4F30B1A4FEA31
:102A60000A100FFA80FA504608F00DFB05460022C6
:102A7000154B08F05BFB07460022144B08F042F9A7
:102A8000CDE9000108F050F81949086004F0010090
:102A900010490870C4F340000F490870C4F3800067
:102AA0000E490870C4F300400D4908700F480068D3
:102AB000BDE8FC8700080140001001400000D03F45
:102AC00000001040600000200000B03F00003040D7
:102AD000640000205E0000205D0000205C000020FB
:102AE0005F000020680000206C00002070000020C3
:102AF000740000202DE9F04194B08021FA4805F0DF
:102B00008BFD002010901190129013900C900D905E
:102B10000E900F90089009900A900B90F3A1F24844
:102B200005F0F7FCF3A1F04805F0F3FCF24805F0DE
:102B3000D1FC08280DD9F04805F0CCFC142808D2A7
:102B4000ED49EEA005F006FBEB49E74805F0E1FC96
:102B500011E0E949EEA005F0FDFAE74805F0BAFCFE
:102B6000082808D9E44805F0B5FC142803D2E24946
:102B7000DD4805F0CEFCDFA1DB4805F0CAFCE848E3
:102B800005F05EFC00281CDBE54805F059FCE54932
:102B9000884216DCE24805F053FC804608F073FAE0
:102BA00006460022E04B08F0ADF8044622460B46EC
:102BB000DEA104A805F0DAFA04A9CB4805F0A9FCC7
:102BC00003E0CBA1C84805F0A4FCCAA1C64805F0A3
:102BD000A0FCD84805F034FC00281CDBD54805F0E3
:102BE0002FFCD049884216DCD24805F029FC8046EB
:102BF00008F049FA06460022CB4B08F083F8044659
:102C000022460B46C9A102A805F0B0FA02A9B648AF
:102C100005F07FFC03E0B6A1B34805F07AFCB5A14E
:102C2000B14805F076FCC44805F00AFC00281CDB1E
:102C3000C14805F005FCBB49884216DCBE4805F0DA
:102C4000FFFB804608F01FFA06460022B64B08F04C
:102C500059F8044622460B46B4A1684605F086FAA8
:102C60006946A14805F055FC03E0A1A19E4805F086
:102C700050FCA0A19C4805F04CFCB04820B1014696
:102C8000994805F046FC03E099A1974805F041FCFE
:102C900098A1954805F03DFCA84820B1A849924864
:102CA00005F037FC03E092A18F4805F032FC91A1BA
:102CB0008D4805F02EFCA14820B1A2498A4805F0B4
:102CC00028FC03E08AA1884805F023FC89A18648F6
:102CD00005F01FFC9C4805F0B3FBB0F5FC6F30DD40
:102CE0009AA0FEF7FDFB9848FEF7FAFB9AA0FEF7C4
:102CF000F7FB99A0FEF7F4FB934801680C9141683B
:102D00000D910089ADF838000CA805F099FB00F191
:102D10000804224691A10CA805F028FA0DF1320111
:102D200008A805F0F6FB88490A3108A805F0F1FB70
:102D300008A805F0CFFB041F224608A910A805F03B
:102D400039FC874805F07CFB002813DB844805F03C
:102D500077FBB0F5FA7F0DDA814805F071FB044688
:102D6000224680A106A805F001FA06A95E4805F0F2
:102D7000D0FB03E05EA15C4805F0CBFB5DA15A48A7
:102D800005F0C7FB10A805F05BFBB0F5FC6F03DD99
:102D900010A9554805F0BDFB56A1534805F0B9FBF5
:102DA000714805F04DFB032815DD6F4805F048FB21
:102DB000362810DA6DA0FEF793FB6B48FEF790FB08
:102DC00065A0FEF78DFB64A0FEF78AFB66494648C6
:102DD00005F09FFB03E046A1434805F09AFB45A19F
:102DE000414805F096FB64A13F4805F092FB41A1E4
:102DF0003D4805F08EFB614805F022FB492815DDB2
:102E00005E4805F01DFB882810DA5DA0FEF768FB20
:102E10005A48FEF765FB50A0FEF762FB4EA0FEF796
:102E20005FFB5649304805F074FB03E030A12E48A3
:102E300005F06FFB2FA12C4805F06BFB53A12A482E
:102E400005F067FB2BA1284805F063FB50A126483D
:102E500005F05FFB27A1244805F05BFB4EA122484B
:102E600005F057FB23A1204805F053FB21A11E4884
:102E700005F04FFB1FA11C4805F04BFB48A11A4869
:102E800005F047FB47A1184805F043FB32A116485F
:102E900005F03FFB14B0BDE8F0812DE9F0470025B7
:102EA000012400264FF000080027A1463E493FA01C
:102EB00005F050F927E117B94FF0010909E0012F9A
:102EC00003D116B94FF0000903E0012E01D14FF0F4
:102ED0000209B9F1000F71D0B9F1010F6CD0B9F14D
:102EE000020F6AD103E169E0F6170020303030307C
:102EF000300000002C000000881700207375636309
:102F00006573732069643A2025730D0A0000000080
:102F10006661696C65642069643A2025730D0A0056
:102F2000DF180020A086010000408F40252E336668
:102F300000000000E9180020F3180020FD18002010
:102F40000719002011190020B21800206770735F64
:102F500074696D653A0000000D0A0000256C64007C
:102F6000D518002025640000CB1800206770735F1F
:102F70006C6174693A0000004E000000C118002026
:102F80006770735F6C6F6E67693A00004500000000
:102F9000313030303000000033303030000000007D
:102FA0002A000000303000007618002069703A20B6
:102FB00025730D0A0000000015E0A3E0FFF79AFD5D
:102FC000082255A155A0FDF715FC40B95748FEF75A
:102FD00048FB1A20FEF737FB55A0FEF781FAFEF7F3
:102FE00069FB01268EE0022254A157A0FDF702FCE6
:102FF000022259A15AA0FDF7FDFB02225BA15CA0B1
:10300000FDF7F8FB022259A15DA0FDF7F3FB0222B8
:1030100056A15EA0FDF7EEFB022254A15EA0FDF7D3
:10302000E9FB082251A160A0FDF7E4FB61A0FEF7D7
:1030300018FB0A224DA16248FDF7DCFB00284CD1A9
:10304000002560A0FEF74CFAFEF734FB0120614931
:1030500008703DE060A1644805F006FA38B163A04D
:10306000FEF73EFA01270024FEF724FB34E063A1BB
:103070005D4805F0F9F938B165A0FEF731FA01278E
:103080000024FEF717FB27E065A1574805F0ECF98F
:1030900058B1052C01D14FF0010865A0FEF720FAC8
:1030A000601CC4B2FEF706FB16E065A14E4805F0B1
:1030B000DBF958B1052C01D14FF0010862A0FEF7F1
:1030C0000FFA601CC4B2FEF7F5FA05E0601CC4B24A
:1030D000404800780628BDDB08E0022D01D14FF002
:1030E0000108681CC5B25CA0FEF7FAF90AE04FF0CF
:1030F0000108022211A114A0FDF77CFB5AA0FEF7E3
:10310000EFF900BF00BFB8F1000F3FF4D4AEFEF7F7
:103110001EFABDE8F08700003E00000041542B433A
:10312000495053454E443D3000000000F617002042
:10313000D2D1B7A2CBCD0D0A00000000434C4F53B3
:1031400045204F4B0000000041542B434950434C55
:103150004F53453D3000000053485554204F4B001D
:1031600041542B4349505348555400004F4B0000E5
:1031700041542B4347434C4153533D2242220000CC
:1031800041542B43474154543D31000041542B439B
:1031900049504D55583D310041542B435354543DF3
:1031A00022434D4E4554220041542B43494943523A
:1031B0000000000041542B43494653520D0A0000C1
:1031C00076180020D5FDD4DAB7A2C6F0C1ACBDD3C5
:1031D0000D0A000026000020302C20434F4E4E45A3
:1031E0004354204F4B00000008160020D0C5BAC53C
:1031F00030C1ACBDD3B3C9B9A60D0A00302C2041F3
:103200004C5245415920434F4E4E45435400000017
:10321000D0C5BAC530D2D1BEADC1ACBDD30D0A0048
:10322000302C20434F4E4E454354204641494C00DC
:10323000D0C5BAC530C1ACBDD3CAA7B0DC0D0A0039
:103240004552524F52000000D0C5BAC530C1ACBD86
:10325000D3B3F6B4ED0D0A006970B5D8D6B7CEDE9B
:10326000D0A70D0A00000000B9D8B1D5736F636B09
:103270006574C1ACBDD30D0A00000000524B18604C
:10328000524B1960524B1A60704710B50B46002123
:1032900002E05C5C6040491C9142FAD310BD2DE90C
:1032A000FC5F05468B4691464FF0000A00200190D6
:1032B00000906420B9FBF0F000F1010800BF00BFEE
:1032C0006422694640480068404B1B6898470446A2
:1032D00024B19DF80000022800D104E0A8F1010803
:1032E000B8F1000FECD100BFB8F1000F00DC43E0F3
:1032F0006422694634480068344B1B68984704468A
:1033000004B939E09DF800002870642269462E480F
:1033100000682E4B1B689847044604B92CE09DF8C2
:10332000000068709DF8007000260CE06422694679
:1033300025480068254B1B68984704469DF80010F7
:10334000B01C2954761CBE42F0DBBA1C2946002072
:10335000FFF79BFF8246C82201A91B4800681B4B50
:103360001B68984704461CB19DF80400824500D0B4
:1033700002E00120BDE8FC9F00BF0020FAE72DE934
:10338000F04104460D4602210F480068104A1268B9
:103390009047002606E0A15D0B4800680C4A1268C1
:1033A0009047761CAE42F6D32A4621460020FFF70E
:1033B0006CFF0746394604480068054A1268904782
:1033C0000120BDE8F081000084000020880000207A
:1033D0008C00002003460120704770B505460C465E
:1033E00000BF4021914800F0A5FF0028F9D02146F8
:1033F0008E4800F031FF012070BD020A0A7048704B
:1034000070471CB504208DF8000001208DF80100E4
:1034100000208DF802009DF80100811C6846FFF72E
:10342000AEFF1CBD1CB502208DF8000001208DF8F8
:10343000010000208DF802009DF80100811C684603
:10344000FFF79DFF1CBD1CB504208DF80000012076
:103450008DF8010003208DF802009DF80100811C09
:103460006846FFF78CFF1CBD1CB503208DF80000DB
:1034700001208DF801008DF802009DF80100811CEB
:103480006846FFF77CFF1CBD1CB504208DF80000CA
:1034900001208DF8010002208DF802009DF8010046
:1034A000811C6846FFF76BFF1CBD1CB504208DF81E
:1034B000000001208DF801008DF802009DF8010048
:1034C000811C6846FFF75BFF1CBD10B586B001206C
:1034D0008DF804000C208DF80500554804F0B0FF6D
:1034E00084B20DF106012046FFF787FF514804F032
:1034F000A7FF84B202A92046FFF77FFF0DF10A0162
:103500000020FFF77AFF4C4804F09AFF84B203A929
:103510002046FFF772FF494804F092FF84B20DF194
:103520000E012046FFF769FF454804F089FF84B289
:1035300004A92046FFF761FF3D4804F081FF4CF2EB
:103540005031884218DC3B4804F07AFF4CF250318D
:10355000884211DC384804F073FFB0F5FA6F0BDCD9
:10356000364804F06DFFB0F5FA6F05DC344804F01E
:1035700067FFB0F5FA6F04DDFFF797FFFFF774FF01
:103580000DE02B4804F05CFF44F62061884204DB28
:10359000FFF77AFFFFF768FF01E0FFF754FF9DF8A0
:1035A0000500811C01A8FFF7EAFE06B010BD10B5AA
:1035B000244A254925480068FFF760FEFFF785FF8C
:1035C000FFF730FFFFF71DFF10BD1CB502208DF87F
:1035D000000001208DF80100FF208DF802009DF809
:1035E0000100811C6846FFF7CAFE1CBD1CB5032004
:1035F0008DF8000001208DF801008DF802009DF883
:103600000100811C6846FFF7BAFE1CBD1CB50320F3
:103610008DF8000001208DF801008DF802009DF862
:103620000100811C6846FFF7AAFE1CBD004800404F
:10363000DF180020E9180020FD18002007190020DD
:1036400011190020DB330008D5330008900000205A
:1036500010B502F00EFC02F052FD02F025FC10BD88
:1036600010B56FF0040000F023F9314800683149CB
:10367000B0FBF1F0304908702D4800682D49B0FBCF
:10368000F1F441F28830444305202C4908804FF082
:10369000E020006940F002004FF0E0210861084698
:1036A0004461006940F00100086110BD70B5034637
:1036B00000224FF0E02675691F4E367803FB06F4B2
:1036C00000BF4FF0E026B16910E04FF0E026B0698E
:1036D00088420BD0884202D20E1A324402E02E1ADF
:1036E0000E4432440146A24200D300E0EDE700BFA1
:1036F00070BD70B5044612480078012811D10F48FA
:103700000088844206DB0D48008894FBF0F52846CB
:1037100004F072FB0948008894FBF0F100FB1140B3
:1037200084B24FF47A7104FB01F0FFF7BFFF70BD64
:103730000400002000127A0094000020960000206F
:10374000D200002008B500214FF0006000F098F88A
:103750004FF4A06000F05CF81C208DF800000320FE
:103760008DF8010000208DF8020001208DF8030083
:10377000684600F052F825208DF8000002208DF8F0
:10378000010000208DF8020001208DF8030068463A
:1037900000F043F826208DF8000004208DF8010089
:1037A00000208DF8020001208DF80300684600F02B
:1037B00034F827208DF8000000208DF801008DF8E6
:1037C000020001208DF80300684600F026F808BDCD
:1037D0000948804709480047FEE7FEE7FEE7FEE7A5
:1037E000FEE7FEE7FEE7FEE7FEE7FEE704480549E1
:1037F000054A064B70470000E90400083101000843
:1038000000240020002A002000260020002600209E
:1038100031490143314A1160704770B500210023DE
:103820000F22C4780CB32D4C246804F4E064C4F572
:10383000E064210AC1F10403CA40447804FA03F1A8
:103840008478144021430901254C0678A155047859
:1038500004F01F050124AC4005786D114FF0E026FF
:1038600006EB8505C5F8004109E0047804F01F0562
:103870000124AC401B4D0678761145F8264070BDFA
:10388000194A0A400243154B1B1F1A60704739B191
:10389000124A121D12680243104B1B1D1A6006E0EB
:1038A0000E4A121D126882430C4B1B1D1A60704792
:1038B000042808D14FF0E021096941F004014FF0DC
:1038C000E022116107E04FF0E021096921F00401D5
:1038D0004FF0E022116170470000FA050CED00E0A6
:1038E00000E400E080E100E080FFFF1F10B5044627
:1038F000CA48844208D10121042000F023FB0021A2
:10390000042000F01FFB46E0C548844208D1012195
:10391000082000F017FB0021082000F013FB3AE01C
:10392000C048844208D10121102000F00BFB002187
:10393000102000F007FB2EE0BB48844208D1012193
:10394000202000F0FFFA0021202000F0FBFA22E006
:10395000B648844208D10121402000F0F3FA00214A
:10396000402000F0EFFA16E0B148844208D101216E
:10397000802000F0E7FA0021802000F0E3FA0AE05E
:10398000AC48844207D10121801500F0DBFA002108
:10399000A01500F0D7FA10BD10B50121084600F0BF
:1039A000D1FA0021012000F0CDFA10BD2DE9F0413F
:1039B000024600250026002000230024002791F85D
:1039C00003C00CF00F0591F803C01CF0100F03D0DA
:1039D00091F802C04CEA050591F800C0BCF1000F57
:1039E00031D0146800202BE04FF0010C0CFA00F3EA
:1039F000B1F800C00CEA03069E4220D183004FF0CC
:103A00000F0C0CFA03F7BC4305FA03FC4CEA040460
:103A100091F803C0BCF1280F06D14FF0010C0CFA4D
:103A200000FCC2F814C00AE091F803C0BCF1480FD2
:103A300005D14FF0010C0CFA00FCC2F810C0401C7C
:103A40000828D1D31460B1F800C0BCF1FF0F34DDF9
:103A5000546800202EE000F1080C4FF0010808FA2D
:103A60000CF3B1F800C00CEA03069E4221D183009A
:103A70004FF00F0C0CFA03F7BC4305FA03FC4CEAB9
:103A8000040491F803C0BCF1280F05D100F1080C23
:103A900008FA0CF8C2F8148091F803C0BCF1480F82
:103AA00007D100F1080C4FF0010808FA0CF8C2F831
:103AB0001080401C0828CED35460BDE8F0814FF63A
:103AC000FF710180022181700421C170704702469C
:103AD000002093680B4201D0012000E000207047D5
:103AE0000146886880B2704702460020D3680B42C6
:103AF00001D0012000E0002070470146C86880B274
:103B0000704701617047416170470AB1016100E08F
:103B100041617047C16070474FF480320A4382614F
:103B20008161826182698269704702460020424B4E
:103B300018684FF68073184040EA021008433E4B65
:103B4000186070473D49C8617047F0B50A460023C8
:103B500000240021002500F00046B6F1004F02D1FC
:103B6000354EF16901E0344E7168C0F3034583B20C
:103B700000F44016B6F5401F08D121F070612E4EBA
:103B8000766826F070662C4F7E6012E000F4801696
:103B9000B6F5801F06D1032606FA05F4A14341F0CD
:103BA000706106E0460D360103FA06F6B14341F0B6
:103BB000706122B1460D360103FA06F6314300F07A
:103BC0000046B6F1004F02D11B4EF16101E01A4EE2
:103BD0007160F0BD30B500228B071C0F0F2303FA74
:103BE00004F2154B08338C1053F824309343124CD5
:103BF00008348D1044F8253023468C1053F82430B7
:103C00008C07240F00FA04F423430B4C08348D1066
:103C100044F8253030BD0A4908607047000801406B
:103C2000000C014000100140001401400018014048
:103C3000001C014000200140000001400000204223
:103C4000DC002042DB48006840F00100D9490860F0
:103C500008464068D8490840D64948600846006888
:103C6000D6490840D34908600846006820F48020FF
:103C700008600846406820F4FE0048604FF41F00CA
:103C800088607047CB49096821F48031C94A1160C6
:103C90001146096821F480211160B0F5803F03D0FE
:103CA000B0F5802F0ED106E0C249096841F4803199
:103CB000C04A116007E0BF49096841F4A021BD4A2C
:103CC000116000E000BF00BF704710B50146002240
:103CD000002300204A11012A02D1B64C236806E0D5
:103CE000022A02D1B34C236A01E0B24C636A01F0AC
:103CF0001F02012494401C4201D0012000E000205A
:103D000010BD70B500240025002600BF3120FFF74C
:103D1000DCFF0646641CB4F5A06F01D0002EF5D080
:103D20003120FFF7D2FF08B1012500E00025284629
:103D300070BD014600209F4A106820F0F80040EA5C
:103D4000C100106070479E4908607047024600201D
:103D5000984B586820F47C1042EA01031843954BB5
:103D60005860704796490866704701460020914A9E
:103D7000506820F003000843506070478D48406849
:103D800000F00C007047014600208A4A506820F07D
:103D9000F00008435060704701460020854A506893
:103DA00020F4E06008435060704701460020814ADB
:103DB000506820F4605040EAC1005060704729B15B
:103DC0007C4A527A02437B4B5A7204E0794A527A17
:103DD0008243784B5A7270477A49086070470146AF
:103DE0000020744A506820F44040084350607047F7
:103DF0000021754A11706F4A82F82010012802D004
:103E0000042808D103E001216F4A117004E0052164
:103E10006D4A117000E000BF00BF70476B49086039
:103E200070476449096A0143624A116270476749F1
:103E300044390860704730B5002100220024002377
:103E40005C4D6D6805F00C0121B1042905D00829ED
:103E500023D105E05E4D056022E05D4D05601FE069
:103E6000544D6D6805F47012524D6D6805F4803440
:103E7000022505EB92421CB9564D554305600BE0F7
:103E80004C4D6D6815F4003F03D0524D554305600D
:103E900002E04F4D5543056002E04D4D056000BF07
:103EA00000BF444D6D6805F0F00109094A4D6B5C97
:103EB0000568DD4045603F4D6D6805F4E061090A25
:103EC000454D6B5C4568DD4085603A4D6D6805F495
:103ED0006051C90A404D6B5C4568DD40C560354D99
:103EE0006D6805F44041890B3C4D6B5CC568B5FBC2
:103EF000F3F5056130BD29B12E4A526902432D4BBD
:103F00005A6104E02B4A526982432A4B5A61704736
:103F100029B1284A92690243264B9A6104E0254A56
:103F200092698243234B9A61704729B1214AD26931
:103F30000243204BDA6104E01E4AD26982431D4BE2
:103F4000DA61704729B11B4AD2680243194BDA6023
:103F500004E0184AD2688243164BDA60704729B1F0
:103F6000144A12690243134B1A6104E0114A1269A0
:103F70008243104B1A6170471449403908607047FA
:103F80000F49C86470470B49C87170470948406AB7
:103F900040F0807007494862704701460020054A9A
:103FA00092680A4201D0012000E0002070470149D8
:103FB00088727047001002400000FFF8FFFFF6FE15
:103FC00000004242D8004242201002408004424297
:103FD00000127A0000093D0098000020A80000208F
:103FE00010B50446FB48844209D101218803FFF73C
:103FF000A9FF00214FF48040FFF7A4FF32E0F6480C
:10400000844209D101214804FFF7A9FF00214FF4A0
:104010000030FFF7A4FF25E0F048844209D10121D8
:104020008804FFF79CFF00214FF48020FFF797FFE3
:1040300018E0EB48844209D10121C804FFF78FFF43
:1040400000214FF40020FFF78AFF0BE0E54884428F
:1040500008D101210805FFF782FF00214FF48010ED
:10406000FFF77DFF10BD2DE9F04786B005460E46EF
:104070000024A24600BFA1460027B08900B100BFBE
:104080002F462C8A4CF6FF700440F08804432C82A3
:10409000AC894EF6F3100440B08831890843718929
:1040A00008430443AC81AC8A4FF6FF400440B0891A
:1040B0000443AC8201A8FFF7BEFEC648874202D186
:1040C000DDF810A001E0DDF80CA0A88910F4004F85
:1040D00008D00AEBCA0000EB0A1031684900B0FBB7
:1040E000F1F807E00AEBCA0000EB0A10316889001A
:1040F000B0FBF1F86420B8FBF0F004012009642162
:1041000001FB1089A88910F4004F08D0322000EB81
:10411000C900B0FBF1F000F00700044308E03220D2
:1041200000EB09106421B0FBF1F000F00F00044334
:104130002C8106B0BDE8F0874FF4165101600021D4
:104140008180C18001810C214181002181817047E2
:1041500010B502460020108A4FF2FF0318400B886A
:104160004C8823438C882343CC88234318431082F4
:1041700010BD0021018041808180C180704721B144
:10418000828942F40052828104E082894DF6FF73F5
:104190001A4082817047F0B50346002400260025AE
:1041A0000020A1F510676A3F00D100BF1846C1F397
:1041B000421401F01F06012707FA06F5012C01D170
:1041C0000C3004E0022C01D1103000E014301AB1A0
:1041D00007682F43076002E00768AF430760F0BD40
:1041E0001AB1838A0B43838202E0838A8B438382E2
:1041F0007047028A4FF6F0731A400282028A0A431D
:104200000282704782894FF2FF731A40828182894D
:104210000A438281704721B1828942F00202828181
:1042200004E082894FF6FD731A4082817047028A4A
:104230004FF6DF731A400282028A0A4302827047F5
:1042400021B1028A42F48042028204E0028A4BF6E3
:10425000FF731A4002827047C1F3080282807047E0
:1042600001468888C0F308007047818941F0010148
:1042700081817047028BD2B20283028B42EA012213
:1042800002837047028B02F47F420283028B0A434F
:104290000283704721B1828A42F02002828204E0C8
:1042A000828A4FF6DF731A408282704721B1828A78
:1042B00042F01002828204E0828A4FF6EF731A40C5
:1042C0008282704721B1828A42F00802828204E031
:1042D000828A4FF6F7731A408282704721B1828931
:1042E00042F40042828103E08289C2F30E0282819D
:1042F000704721B1828A42F40062828204E0828A9D
:104300004FF2FF731A4082827047828A4FF6FB7326
:104310001A408282828A0A438282704721B1828A4D
:1043200042F00202828204E0828A4FF6FD731A4054
:104330008282704702460020B1F5007F00D100BFA5
:1043400013880B4201D0012000E00020704701F4E7
:104350000072B2F5007F00D100BFCA4302807047EF
:1043600070B502460024002300250020A1F5106648
:104370006A3E00D100BFC1F3421501F01F030126C0
:1043800006FA03F3012D02D19689334006E0022D8F
:1043900002D1168A334001E0968A33400C1201267E
:1043A00006FA04F41688344013B10CB1012000E081
:1043B000002070BD10B500220023A1F510646A3CF6
:1043C00000D100BF0A1201249440A3B2DC43048050
:1043D00010BD00000038014000440040004800408B
:1043E000004C00400050004010B50446FE48844296
:1043F00008D10121C014FFF7A5FD0021E014FFF74B
:10440000A1FDC4E0B4F1804F08D101210846FFF7B7
:10441000A6FD00210120FFF7A2FDB8E0F348844289
:1044200008D101210220FFF79AFD00210220FFF7A9
:1044300096FDACE0EE48844208D101210420FFF74C
:104440008EFD00210420FFF78AFDA0E0E9488442A8
:1044500008D101210820FFF782FD00210820FFF785
:104460007EFD94E0E448844208D101211020FFF74A
:1044700076FD00211020FFF772FD88E0DF488442BE
:1044800008D101212020FFF76AFD00212020FFF73D
:1044900066FD7CE0DA48844208D101214014FFF730
:1044A00051FD00216014FFF74DFD70E0D5488442B6
:1044B00009D10121C804FFF745FD00214FF4002078
:1044C000FFF740FD63E0D048844209D1012108058F
:1044D000FFF738FD00214FF48010FFF733FD56E061
:1044E000CA48844209D101214805FFF72BFD00216C
:1044F0004FF40010FFF726FD49E0C548844208D17B
:1045000001214020FFF72BFD00214020FFF727FD70
:104510003DE0C048844208D101218020FFF71FFD03
:1045200000218020FFF71BFD31E0BB48844208D109
:1045300001218015FFF713FD0021A015FFF70FFDE6
:1045400025E0B648844209D101210804FFF7FAFCAE
:1045500000214FF48030FFF7F5FC18E0B0488442AA
:1045600009D101214804FFF7EDFC00214FF4003090
:10457000FFF7E8FC0BE0AB48844208D10121880436
:10458000FFF7E0FC00214FF48020FFF7DBFC10BDBB
:1045900000220288944B98420ED0994B98420BD03F
:1045A000B0F1804F08D0914B984205D0904B984283
:1045B00002D0904B984204D14FF68F731A404B882B
:1045C0001A438D4B984207D08C4B984204D04FF63B
:1045D000FF431A40CB881A4302808B8883850B885F
:1045E0000385814B98420BD0854B984208D08B4B6A
:1045F000984205D08A4B984202D08A4B984201D10A
:104600000B7A038601238382704770B50024002251
:104610000023058C4FF6FE7635400584028C838896
:10462000048B4FF68F752C40B51E2C400D882C4303
:10463000751E2A400D892A434D882A436A4DA84297
:104640000BD06F4DA84208D0744DA84205D0744DD0
:10465000A84202D0734DA84213D14FF6F7752A40F5
:104660004D892A434FF6FB752A408D882A434FF621
:10467000FF652B404FF6FF552B408D892B43CD898D
:104680002B4383800483CD888586028470BD70B5FA
:10469000002400220023058C4FF6EF763540058478
:1046A000028C8388048B48F6FF752C404FF6FF453B
:1046B0002C400D884FF6FF7606EA05252C434FF671
:1046C000DF752A400D8906EA05152A434D8806EA5A
:1046D00005152A43444DA84202D0494DA8421DD198
:1046E0004FF67F752A404D894FF6FF7606EA05158D
:1046F0002A434FF6BF752A408D8806EA05152A43DE
:104700004FF6FF352B404FF2FF752B408D8906EA9F
:1047100085052B43CD8906EA85052B4383800483D9
:10472000CD880587028470BD70B500240022002367
:10473000058C4FF6FF6635400584028C8388848B98
:104740004FF68F752C404FF6FC752C400D882C438E
:104750004FF6FF552A400D894FF6FF7606EA0525EC
:104760002A434D8806EA05252A431F4DA84202D058
:10477000234DA8421DD14FF2FF752A404D894FF6B7
:10478000FF7606EA05252A434FF6FF352A408D8835
:1047900006EA05252A434EF6FF752B404DF6FF75B8
:1047A0002B408D8906EA05152B43CD8906EA0515B0
:1047B0002B4383808483CD888587028470BD70B548
:1047C000002200230024058C4EF6FF763540058438
:1047D000038C8488828B48F6FF752A404FF6FF458C
:1047E0002A400D8820E00000002C01400004004019
:1047F00000080040000C0040001000400014004081
:1048000000340140004C0140005001400054014080
:1048100000180040001C0040002000400040014003
:1048200000440140004801404FF6FF7606EA0525A6
:104830002A434DF6FF752B400D8906EA05352B43BB
:104840004D8806EA05352B43FA4DA84202D0FA4DB1
:10485000A84208D14BF6FF752C408D894FF6FF76A4
:1048600006EA85152C4384808283CD88A0F84050C9
:10487000038470BD828B4FF2FF331A408283828B98
:104880004FF6FF7303EA01231A4382837047F0B5A2
:104890000C461546002200210026078C4EF6FF7CB0
:1048A00007EA0C070784828B018C4FF6FF7707EA33
:1048B000043640F6FF473A404FF6FF7707EA0527F0
:1048C0003A434FF6FF7707EA03373A43D94FB842E6
:1048D0000ED0D94FB8420BD0B0F1804F08D0D74F8F
:1048E000B84205D0D64FB84202D0D64FB84206D112
:1048F0004DF6FF77394046F48057394305E047F6D7
:10490000FF57394044F48057394382830184F0BD16
:10491000828B4FF6F3731A408283828B0A43828321
:104920007047F0B50C461546002200210026078C82
:104930004FF6FF6C07EA0C070784828B018C4FF659
:10494000FF7707EA04264FF60C773A404FF6FF77D9
:1049500007EA03172F433A43B64FB8420ED0B64F7B
:10496000B8420BD0B0F1804F08D0B44FB84205D058
:10497000B34FB84202D0B34FB84206D14FF6FF57FB
:10498000394046F48077394305E04FF2FF5739400C
:1049900044F48077394382830184F0BD028B4FF267
:1049A000FF331A400283028B4FF6FF7303EA0123A1
:1049B0001A4302837047F0B50C46154600220021C9
:1049C0000026078C4FF6EF7C07EA0C070784028B62
:1049D000018C4FF6FF7707EA041640F6FF473A408E
:1049E0004FF6FF7707EA03373A434FF6FF7707EAB8
:1049F00005273A438F4FB8420ED08F4FB8420BD0A5
:104A0000B0F1804F08D08D4FB84205D08C4FB842DE
:104A100002D08C4FB84206D14FF6DF77394046F0CE
:104A20001007394305E04FF65F77394044F010072F
:104A3000394302830184F0BD028B4FF6F3731A40B1
:104A40000283028B0A4302837047F0B50C46154679
:104A500000220021068C4FF6FE773E400684028B32
:104A6000018C4FF60C7632407E1C06EA03162E436C
:104A70003243704EB0420ED06F4EB0420BD0B0F108
:104A8000804F08D06D4EB04205D06D4EB04202D07E
:104A90006C4EB04206D14FF6FD76314044F001062F
:104AA000314305E04FF6F576314044F001063143DD
:104AB00002830184F0BD70B505460C465D48854211
:104AC0000ED05D4885420BD0B5F1804F08D05B48D1
:104AD000854205D05A48854202D05A48854200D1C5
:104AE00000E000BF208850B92389A2886188284649
:104AF000FFF7ABFFE1882846FFF79EFF25E02088FF
:104B000004280AD12389A28861882846FFF753FF29
:104B1000E1882846FFF742FF17E0208808280AD1DD
:104B20002389A28861882846FFF7FBFEE188284692
:104B3000FFF7EEFE09E02389A28861882846FFF787
:104B4000A6FEE1882846FFF795FE70BD2DE9F041ED
:104B500005460C4600260127608808B9022600E0B9
:104B60000026A088012801D1022700E00127208823
:104B7000A0B92389A28861882846FFF766FFE188EB
:104B80002846FFF759FF23893A4631462846FFF762
:104B900012FFE1882846FFF701FF13E02389A2886E
:104BA00061882846FFF707FFE1882846FFF7F6FEF1
:104BB00023893A4631462846FFF747FFE1882846D1
:104BC000FFF73AFFBDE8F0810A884B881A438B88CB
:104BD0001A43CB881A430B891A434B891A438B8992
:104BE0001A43A0F8442070474FF6FF7181800021DE
:104BF0000180C180418001727047002101804180A5
:104C00008180C180018141818181C1817047002102
:104C100001804180012181800021C1800181704794
:104C20000021018041808180C18001814181818199
:104C300070470000002C0140003401400004004097
:104C400000080040000C004021B1028842F001023F
:104C5000028004E002884FF6FE731A40028070471B
:104C600031B1B0F8442042F40042A0F8442005E0FD
:104C7000B0F84420C2F30E02A0F8442070471AB1E5
:104C800083890B43838102E083898B43838170474F
:104C90008182704741EA0203A0F8483070471AB198
:104CA00083890B43838102E083898B43838170472F
:104CB00001894FF6F8721140018170470A460021C0
:104CC00001894FF68F73194011430181704730B548
:104CD00004460D4629462046FFF7F0FF208940F0A4
:104CE0000700208130BD2DE9F04104460D461646EF
:104CF0001F46602D06D13B46012231462046FFF774
:104D00005AFE05E03B46012231462046FFF79DFE54
:104D100029462046FFF7D2FF208940F00700208176
:104D2000BDE8F08130B50C4600210189C9B24FF6CB
:104D3000FF7505EA0325154325432943018130BD4D
:104D40002DE9F04105460E46174698460024434695
:104D50003A4631462846FFF7E5FF2C894FF6F870B2
:104D6000044044F007044FF68F70044044F0700490
:104D70002C81BDE8F081F0B504460D4616461F466D
:104D80003B46324629462046FFF7CCFF208940F4B7
:104D900080402081F0BD0185828270470A46002153
:104DA00001884FF68F731940114301807047F0B5A9
:104DB0000C4615461E460021002200230189028B65
:104DC000038C4FF6F877394021434FF6FC473A40C1
:104DD00040F201173A434FF6DD773B404FF6FF773D
:104DE00007EA06172F433B43018102830384F0BD8A
:104DF0000A460021018B4FF68F731940114301833E
:104E000070470A460021018B48F6FF7319404FF6A0
:104E1000FF7303EA02231943018370470A46002106
:104E2000818B4FF68F7319401143818370470A4677
:104E30000021818B48F6FF7319404FF6FF7303EA98
:104E4000022319438183704721B1028842F0800216
:104E5000028004E002884FF67F731A400280704798
:104E600021B1828842F00402828004E082884FF6F9
:104E7000FB731A408280704721B1828842F0080299
:104E8000828004E082884FF6F7731A408280704770
:104E900021B1828842F00102828004E082884FF6CC
:104EA000FE731A40828070470A460021018B4FF63C
:104EB000F77319401143018370470A460021018BA3
:104EC0004FF2FF7319404FF6FF7303EA02231943B1
:104ED000018370470A460021818B4FF6F773194012
:104EE0001143818370470A460021818B4FF2FF7383
:104EF00019404FF6FF7303EA022319438183704779
:104F00000A460021018B4FF6FB73194011430183C0
:104F100070470A460021018B4FF6FF3319404FF6C8
:104F2000FF7303EA02231943018370470A460021F5
:104F3000818B4FF6FB7319401143818370470A46FA
:104F40000021818B4FF6FF3319404FF6FF7303EAC0
:104F500002231943818370470A460021018B4FF6D3
:104F60007F7319401143018370470A460021018B6A
:104F7000C1F30E014FF6FF7303EA022319430183C5
:104F800070470A460021818B4FF67F731940114309
:104F9000818370470A460021818BC1F30E014FF6D1
:104FA000FF7303EA02231943818370470A460021F5
:104FB000018C4FF6FD7319401143018470470A4676
:104FC0000021018C4FF6F77319401143018470479B
:104FD0000A460021018C4FF6DF7319404FF6FF732C
:104FE00003EA02131943018470470A460021018C29
:104FF0004FF67F7319404FF6FF7303EA021319430C
:10500000018470470A460021018C4FF6FF53194076
:105010004FF6FF7303EA02231943018470470A46DF
:105020000021018C4FF2FF7319404FF6FF7303EA22
:1050300002231943018470470A460021018C4DF672
:10504000FF7319404FF6FF7303EA023319430184DB
:10505000704730B5002301248C40A3B2048C9C43DC
:105060000484048C02FA01F5ADB22C43048430BDF3
:1050700030B5002304248C40A3B2048C9C430484E8
:10508000048C02FA01F5ADB22C43048430BD70B536
:105090000346002000241846183001258D40ACB28C
:1050A0001D8CA5431D8409B1082909D100EB6100BD
:1050B000056825F0700505600568154305600EE07C
:1050C0000D1FC5F34E052844056825F4E04505602D
:1050D00005684FF6FF7606EA02263543056070BD87
:1050E00021B1028842F00202028004E002884FF6F9
:1050F000FD731A400280704721B1028842F0040219
:10510000028004E002884FF6FB731A400280704769
:1051100021B1828842F08002828004E082884FF6CA
:105120007F731A408280704702884FF6F7731A40E7
:10513000028002880A430280704782884FF68F738C
:105140001A40828082880A438280704702894FF623
:10515000F8731A40028102890A430281704702896A
:105160004FF67F731A40028102890A430281704719
:1051700081847047818570478186704701877047B9
:1051800081877047A0F84010704702884FF6FF43B0
:105190001A40028002880A43028070470146888EC6
:1051A00070470146088F70470146888F7047014657
:1051B000B1F8400070470146888C70470146088D61
:1051C000704702460020138A0B4201D0012000E004
:1051D00000207047CA430282704730B50246002063
:1051E00000230024158A05EA0103958905EA0104D4
:1051F00013B10CB1012000E0002030BDCA4302828F
:105200007047000001460020FE4A106800F0380098
:10521000084310607047FB49096821F00801F94A0A
:10522000116011460968014311607047F54909682A
:1052300021F01001F34A1160114609680143116021
:105240007047F148EF494860F04848607047EE48C1
:10525000EC494860ED4848607047EA48006940F012
:105260008000E84908617047E648006940F0800026
:10527000E449086170470420E249C96811F0010F50
:1052800001D001200EE0DF49C96811F0040F01D000
:10529000022007E0DB49C96811F0100F01D003209C
:1052A00000E00420704700B502460423FFF7E3FF47
:1052B000034603E0FFF7DFFF0346521E012B01D137
:1052C000002AF7D102B90523184600BD30B50446BF
:1052D00004254FF43020FFF7E6FF0546042D17D1D3
:1052E000C848006940F00200C649086108464461A8
:1052F000006940F0400008614FF43020FFF7D3FF11
:105300000546C048006941F6FD710840BD49086185
:10531000284630BD10B504244FF43020FFF7C3FFFA
:105320000446042C16D1B748006940F00400B54982
:1053300008610846006940F0400008614FF43020E1
:10534000FFF7B1FF0446AF48006941F6FB71084022
:10535000AC490861204610BD00B502460423FFF7A2
:105360008AFF034603E0FFF786FF0346521E012B28
:1053700001D1002AF7D102B90523184600BD10B5A6
:1053800004244FF43020FFF7E7FF0446042C16D125
:105390009C48006940F004009A4908610846006989
:1053A00040F0400008614FF43020FFF7D5FF04467D
:1053B0009448006941F6FB71084092490861204613
:1053C00010BD00208F49C96911F0020F01D00120E2
:1053D00000E00020704730B5A5250424FFF7F1FF59
:1053E00000B100254FF43020FFF75DFF0446042C88
:1053F0003AD18548834988608448886008460069B6
:1054000040F0200008610846006940F04000086153
:105410004FF43020FFF747FF0446042C1BD1794896
:10542000006941F6DF710840764908610846006965
:1054300040F01000086176480580E002FFF733FF76
:105440000446052C10D06F48006941F6EF71084002
:105450006C49086108E0052C06D06A48006941F6ED
:10546000EF71084067490861204630BDF0B5044639
:105470000D4604260027F002FFF715FF0646042E0E
:1054800022D16048006940F001005E490861258032
:10549000F002FFF708FF0646042E0ED1A71C280CC9
:1054A0003880F002FFF7FFFE06465648006941F6D5
:1054B000FE7108405349086106E05248006941F610
:1054C000FE7108404F4908613046F0BD70B5044692
:1054D0000D460426F002FFF7E6FE0646042E11D123
:1054E0004848006940F00100464908612580F00203
:1054F000FFF7D9FE06464348006941F6FE710840B1
:1055000040490861304670BD70B505460E4604241A
:10551000E002FFF7C8FE0446042C17D13A48394987
:1055200088603A4888600846006940F010000861C9
:105530002E80E002FFF7B7FE0446052C06D0314866
:10554000006941F6EF7108402E490861204670BDA0
:105550002DE9F04304464FF6FF763746B046B14694
:105560000425E443E6B2C4F30727C4F307484FEA2F
:105570001469E802FFF797FE0546042D40D1224842
:1055800020498860214888600846006940F0100082
:105590000861FF2E06D01E4808300680E802FFF79B
:1055A00082FE0546042D08D1FF2F06D018480A3088
:1055B0000780E802FFF777FE0546042D0AD1B8F10F
:1055C000FF0F07D012480C30A0F80080E802FFF768
:1055D0006AFE0546042D0AD1B9F1FF0F07D00C4829
:1055E0000E30A0F80090E802FFF75DFE0546052D9D
:1055F00006D00448006941F6EF710840014908618E
:10560000284607E00020024023016745AB89EFCD23
:1056100000F8FF1FBDE8F08330B5054604244FF4C1
:105620003020FFF740FE0446042C41D15E485F491C
:1056300088605F4888600846006940F02000086183
:105640000846006940F0400008614FF43020FFF741
:105650002AFE0446042C22D15448006941F6DF7129
:105660000840524908610846006940F0100008618E
:105670001DB100204F49088002E0A5204D49088057
:105680004FF43020FFF70FFE0446052C10D047489A
:10569000006941F6EF7108404449086108E0052CB3
:1056A00006D04248006941F6DF7108403F49086171
:1056B000204630BDF0B505460E46174604243A484C
:1056C0003A4988603A488860E002FFF7ECFD0446FA
:1056D000042C19D13548006940F0100033490861A5
:1056E00047F0F800304328433249891C0880E00223
:1056F000FFF7D9FD0446052C06D02C48006941F679
:10570000EF710840294908612046F0BD2748C0696B
:10571000800870472548006A7047002023490968BF
:1057200011F0200F01D0012000E00020704729B1C6
:105730001E4A126902431D4B1A6104E01B4A12699A
:1057400082431A4B1A61704701460020012908D193
:10575000164AD26912F0010F01D0012008E00020A2
:1057600006E0124AD2680A4201D0012000E000207F
:1057700070470E49C860704704200C49C96811F091
:10578000010F01D001200EE00849C96811F0040F93
:1057900001D0022007E00549C96811F0100F01D0BF
:1057A000032000E0042070472301674500200240E9
:1057B000AB89EFCD00F8FF1F10B50446F9488442CD
:1057C00008D101214015FEF7BDFB00216015FEF751
:1057D000B9FB17E0F448844208D101210015FEF717
:1057E000B1FB00212015FEF7ADFB0BE0EF48844232
:1057F00008D10121C803FEF7A5FB00214FF40040AA
:10580000FEF7A0FB10BD30B5024600200023506813
:10581000E74C20400D790C6844EA05242043506091
:105820009068E44C2040D1E902542C434D7944EA7D
:10583000450420439060D06A20F470000C7C641E04
:10584000E4B2234340EA0350D06230BD002101603E
:10585000017141718160C16001210174704721B102
:10586000826842F00102826003E0826822F0010255
:105870008260704721B1826842F48072826003E0E6
:10588000826822F480728260704710B50023CBB228
:105890001AB144681C43446002E044689C4344607D
:1058A00010BD816841F00801816070470146002009
:1058B0008A6812F0080F01D0012000E00020704734
:1058C000816841F0040181607047014600208A68C8
:1058D00012F0040F01D0012000E00020704721B138
:1058E000826842F4A002826003E0826822F4A0028F
:1058F00082607047014600208A6812F4800F01D050
:10590000012000E00020704710B50A460021002366
:10591000416821F46041531E41EA4331416010BDAA
:1059200021B1426842F40062426003E0426822F41E
:10593000006242607047F0B504460D460020002129
:10594000092D11DDE068A5F10A0606EB46070726DA
:1059500006FA07F18843A5F10A0606EB460603FAA4
:1059600006F10843E0600CE0206905EB45070726D7
:1059700006FA07F1884305EB450603FA06F10843EA
:105980002061072A0FDA606B561E06EB86071F267A
:1059900006FA07F18843561E06EB860605FA06F15D
:1059A0000843606322E00D2A0FDA206BD61F06EB56
:1059B00086071F2606FA07F18843D61F06EB8606E0
:1059C00005FA06F10843206310E0E06AA2F10D0633
:1059D00006EB86071F2606FA07F18843A2F10D069B
:1059E00006EB860605FA06F10843E062F0BD21B138
:1059F000826842F48012826003E0826822F480129E
:105A0000826070470146C86C80B2704765484C3070
:105A10000068704721B1426842F48062426003E04E
:105A2000426822F480624260704721B1426842F4C9
:105A30008052426003E0426822F480524260704724
:105A40000A460021816821F4E041114381607047DA
:105A500021B1826842F40042826003E0826822F44D
:105A600000428260704721B1826842F40212826073
:105A700003E0826822F4021282607047014600202F
:105A80008A6812F4001F01D0012000E00020704756
:105A9000F0B504461546002000220026092911DD34
:105AA000E068A1F10A0707EB470C072707FA0CF299
:105AB0009043A1F10A0707EB470703FA07F21043E7
:105AC000E0600CE0206901EB410C072707FA0CF2BB
:105AD000904301EB410703FA07F210432061A06BEA
