:020000040800F2
:1000000040460020515C0008490500084B050008E7
:100010004D0500084F0500085105000800000000CC
:100020000000000000000000000000005305000870
:1000300055050008000000007B980008115B0008CF
:100040006B5C00086B5C00086B5C00086B5C000874
:100050006B5C00086B5C00086B5C00086B5C000864
:100060006B5C00086B5C00086B5C00086B5C000854
:100070006B5C00086B5C00086B5C00086B5C000844
:100080006B5C00086B5C00086B5C00086B5C000834
:100090006B5C00086B5C00086B5C00086B5C000824
:1000A0006B5C00086B5C00086B5C00086B5C000814
:1000B000DF1200086B5C00086B5C00086B5C0008DA
:1000C0006B5C00086B5C00086B5C00086B5C0008F4
:1000D0006B5C00087D140008091600085B17000817
:1000E0006B5C00086B5C00086B5C00086B5C0008D4
:1000F0006B5C00086B5C00086B5C00086B5C0008C4
:100100006B5C00086B5C00086B5C00086B5C0008B3
:100110006B5C00086B5C00086B5C00086B5C0008A3
:100120006B5C00086B5C00086B5C00086B5C000893
:10013000DFF80CD00CF0B0FB00480047F5020008D7
:1001400040460020854F864D864C00263878012891
:1001500039D12068B0F5617F0CD183490120266038
:10016000086082490860286888B10020286080A063
:100170000CF044FC04F0AFF978B12168491C64200C
:1001800091FBF0F200FB1210216010B11BE0012086
:10019000ECE77AA00CF032FC15E07CA026600CF0B5
:1001A0002DFC7FA00AF0E0FE80A00AF0DDFE824870
:1001B0000B227BA100680AF032FA80480B227BA157
:1001C00000680AF02CFABE2009F07AFABEE708B5FA
:1001D0000020644C8DF800004FF47A756A460021C7
:1001E000A06808F031FB03F05FFEA06808F002FC95
:1001F000284605F0CBFCF1E74FF47A74012004F0B7
:10020000E2FC0A226E4900F0B5FF022004F0DBFC9C
:100210000A226C4900F0AEFF032004F0D4FC0A224D
:10022000694900F0A7FF00F0DBFD0A22674900F0F2
:10023000A1FF00F0A5FD0A22654900F09BFF0A22FC
:100240006449002000F096FF204605F09FFCD5E7AA
:100250004FF4966404F0B4FF204605F097FCF9E7EC
:100260005D4804F05FFAC82009F02AFAF8E738B5CB
:1002700000248DF8004007F059FD584858490460A3
:10028000012008706946002008F006FA354C6946DE
:100290006060002008F000FAA06009F0C7FA0323AC
:1002A000504A04460021AFF2470008F03CFF062305
:1002B0004D4A0021AFF2670008F035FF04234B4A96
:1002C0000021AFF2CB0008F02EFF0823484A00219E
:1002D000AFF2051008F027FF0523464A0021AFF2D0
:1002E0009B1008F020FF0A2009F03AF9204609F097
:1002F000A1FA38BD10B505F014FC00F0C1FF05F0FF
:1003000067FC00F02EF94FF4E134204601F06AF862
:10031000204601F025F94FF4165001F0CAF90020EB
:100320000BF0BBFD00F08EFC04F047FC04F0D4FFA2
:1003300000F083FA304900200880304908703049C5
:10034000087007F0EEFB0A232E4A0021AFF2E1000D
:1003500008F0E9FE07F0D7FC002010BD5C0000208B
:1003600068000020000000203C0000206C000020FD
:1003700066696C6520646F6E650D0A006461746166
:100380005F6E756D203D2025640A00006461746114
:100390005F6C6F675F6661696C65640A00000000EE
:1003A000303A6C6F672E747874000000303A6C6FCE
:1003B00067312E7478740000680100206C01002001
:1003C000E8000020EC000020F00000209E2000202B
:1003D000A8200020B22000200420002038000020A7
:1003E00028000020C4030020C4040020C40A002008
:1003F000C4160020C4080020300000202000002087
:100400002B000020C4020020474810B5016841F0CD
:10041000010101604168454A114041600168444A58
:1004200011400160016821F480210160416821F4DC
:10043000FE0141604FF41F01816000F030F83D493A
:100440004FF00060086010BD374910B548683A4A5F
:1004500010F00C03394803D0042B01D0082B0BD02B
:1004600002604968354AC1F30311121D515C0268EC
:1004700022FA01F2026010BD4A684B6802F4701261
:100480004FF0020413F4803F04EB924202D04B6819
:100490009B0301D52A4B00E0274B5A43E0E7224853
:1004A0000021026842F4803202604FF4A0630268C7
:1004B00001F1010112F4003F01D19942F7D1016825
:1004C000890330D51F490A6842F010020A600A68A1
:1004D00022F003020A600A6842F002020A604168E0
:1004E000416041684160416841F480614160416818
:1004F00021F47C114160416841F4E81141600168D8
:1005000041F08071016001688901FCD5416821F0EA
:1005100003014160416841F0020141604168C1F35B
:1005200081010229FAD17047001002400000FFF853
:10053000FFFFF6FE08ED00E000127A000C0000203C
:1005400000093D00002002407047FEE7FEE7FEE79D
:10055000FEE77047704700004FF4F0711F4805F048
:10056000A8BC08B50121082005F01FFE4FF47870E3
:10057000ADF8000010208DF8030003208DF8020074
:100580006946164805F025FCFFF7E6FF08BD202167
:10059000124805F08CBC2021104805F08ABC40218F
:1005A0000E4805F084BC40210C4805F082BC802137
:1005B0000A4805F07CBC8021084805F07ABC4FF45D
:1005C0008071064805F073BC4FF48071034805F054
:1005D00070BC4FF4F071014805F069BC000C01409B
:1005E000008870472DE9F04116460F460546002465
:1005F00008E000BF37F81410284606F048FEAD1C8E
:10060000641CA4B2B442F5D3BDE8F08110B5002358
:1006100006E000BF30F8024B21F813405B1C9BB290
:100620009342F7D310BD2DE9F84FA0F100641546B1
:1006300089468246B4F5003F50D206F02EFDA70A47
:10064000C4F34806C6F50074A54200D82C46DFF86E
:100650009C804FF4007B00BF4FF0006000EB8720D0
:100660005A4622490090FFF7D1FF00204FF6FF7154
:1006700006E0331838F813208A4203D1401C80B2B8
:10068000A042F6D3A04221D2009806F041FD0020FE
:10069000424606E039F810108319401C22F8131066
:1006A00080B2A042F6D35A4610490098FFF79AFF4D
:1006B000A5420FD0281B09EB4409A2447F1C002649
:1006C00085B25C46A542C7D82C46C5E722464946B6
:1006D0005046EBE7BDE8F84F06F0EBBCBDE8F88FFD
:1006E00013B5012201A9FFF79EFF1CBDC81600200B
:1006F00010B50146CA480BF0D3FC002800D00120F9
:1007000010BD2DE9F74F054600F0C5FFDFF8148353
:10071000C54EDFF81893DFF818A300274FF0010B40
:100720000198FFF7E5FF20B13770BDE8FE4F00F0FC
:10073000B2BF30780028F3D12C460AE04021404671
:1007400005F0E1FE0028F9D02178404605F07AFE58
:10075000641C20780028F1D1B6A000F073FFA9F83E
:10076000007002988AF8000086F800B0D8E72DE9FA
:10077000F0410446B048AB4F164600688846012554
:1007800068B900F088FF0AE04021384605F0BBFE5A
:100790000028F9D02178384605F054FE641C2078F2
:1007A0000028F1D1A3A000F04DFF8EB19F49002099
:1007B0009D4C08809E4806700120207005E041464F
:1007C00097480BF06DFC30B1002520782842F6D117
:1007D0002846BDE8F0810125F7E710B5022297A170
:1007E00099A0FFF7C4FF022294A19BA0FFF7BFFFCF
:1007F00008229DA19EA0FFF7BAFF08229FA1A0A0FA
:10080000FFF77FFF08229DA1A1A0FFF77AFF082232
:100810009AA1A2A0FFF775FF082298A1A2A0FFF756
:1008200070FF082295A1A4A0FFF76BFFA5A000F020
:1008300009FFBDE8104000F02EBF70B5A4A000F085
:100840004CFE41F2707005F0A1F9A54C01204FF467
:10085000FA75207005E0A3A00CF0D0F8284605F04A
:1008600095F904F047FF0028F5D10BF05DFAA24896
:100870000122A2A1006809F0AEFE04F004FFC10A43
:100880009FA00CF0BBF8A3A00AF06EFBA4A00AF096
:100890006BFBA9481322A5A1006809F0C0FEA74878
:1008A0000B229CA1006809F0BAFEA5480B229CA16E
:1008B000006809F0B4FEA7481322A2A1006809F05D
:1008C000AEFE04F01AFD04F0E8FBA3A000F005FE64
:1008D00006E0A8A1A9480BF0E3FB08B100F0E0FF97
:1008E00020780628F5D9002525704FF44874661045
:1008F0000BE0A3A000F0F1FD204605F047F9A4A00D
:1009000000F0EBFD304605F041F905225BA1A4A003
:10091000FFF72DFF0028ECD1C82258A1A1A0FFF7B6
:1009200026FF01F077FB40B140F6B8349FA000F0FD
:10093000D4FD204605F02AF9F8E701F02EFEFFF776
:100940004CFF204605F022F99F4C01229D4920468C
:10095000FFF75CFE9B489D4902782046FFF756FE54
:100960009A4845730BF0B2FB052808D998A000F00F
:10097000B4FD964800F0B1FD2EA000F0AEFDBDE83C
:10098000704096A000F0A9BD10B508223BA198A028
:10099000FFF7B7FE0F229DA19FA0FFF7E8FE0028FA
:1009A00004D1BDE810409EA00CF028B810BDF8B5E9
:1009B0000546002426460A2230A19CA0FFF7D7FE58
:1009C0009DA117480BF06CFBF8B19DA10BF068FBE3
:1009D00020B906E022291FD0641CE4B2015D002981
:1009E000F8D13044B0F801102980B0F80110ADF80A
:1009F000001081886980B0F80710A9804189E980DA
:100A0000B0F80D102981008A688168460BF0A0FBC0
:100A1000102803DB0120F8BD2646E2E70020F8BDE0
:100A2000481B0020004400402B0000203000002024
:100A3000200000200D0A0000CC000020434C4F5342
:100A400045204F4B0000000041542B434950434C7C
:100A50004F53453D3000000041542B434950434C17
:100A60004F53453D3100000053485554204F4B0033
:100A700041542B4349505348555400004F4B0000FC
:100A800041542B4347434C4153533D2242220000E3
:100A900041542B43474154543D31000041542B43B2
:100AA00049504D55583D310041542B435354543D0A
:100AB00022434D4E4554220041542B434949435251
:100AC0000000000041542B43494653520D0A0000D8
:100AD000B5C8B4FDC4A3BFE9C6F4B6AF0D0A0000A3
:100AE0002700002053442043617264204572726FD6
:100AF00072210D0A0000000080010020303A000041
:100B000053442053697A653A202564204D420D0AEA
:100B100000000000303A6C6F672E7478740000009B
:100B2000303A6C6F67312E7478740000303A766911
:100B3000642E7478740000007001002068010020A9
:100B40006C010020303A6F66666C696E652E7478B1
:100B500074000000740100200D0AC4E3D3D0357383
:100B6000D6D3BDF8C8EBB9A4B3A7C4A3CABD0D0AB8
:100B700000000000B9A4B3A700000000C81A0020BC
:100B8000CEB4BCECB2E2B5BDC4A3BFE90D0A00000F
:100B9000D5FDD4DAB3A2CAD4C1ACBDD30D0A0000CE
:100BA000415400004154453000000000C7EBB2E55D
:100BB00073696DBFA82CB2A2D6D8C6F42121212119
:100BC000210D0A005700002000F30108B8010020A1
:100BD000B6C1C8A16964203A000000000D0ABDF842
:100BE000C8EBD5FDB3A3C4A3CABD0D0A0000000025
:100BF00041542B434E54503D223230322E31303846
:100C00002E362E3935222C38000000002B434E544E
:100C1000503A20310000000041542B434E54500004
:100C20006E7470206F6B0D0A0000000041542B435E
:100C3000434C4B3F000000002B43434C4B3A000019
:100C40002B00000030B587B001214FF4047005F08F
:100C5000ACFA4FF4004005F039FA0720ADF8140063
:100C600000248DF8174005A9754805F0B2F8754DB8
:100C7000284606F06DFD4FF46020CDE90204012006
:100C80008DF804408DF8100000948DF805406946F9
:100C9000284606F079FD0121284606F09DFD2846EC
:100CA00006F0B7FD2C46204606F0B8FD0028FAD124
:100CB000204606F0BAFD204606F0BCFD0028FAD119
:100CC00007B030BD10B55F4C014607230122204616
:100CD00006F0DAFD0121204606F0B3FD0221204690
:100CE00006F0A0FE0028F9D02046BDE8104006F02E
:100CF0000FBE2DE9F04100250E4607462C4608E0C0
:100D00003846FFF7DFFF0544052004F03FFF641C71
:100D1000E4B2B442F4D3B5FBF6F080B2BDE8F081A2
:100D200030B585B01E210A20FFF7E3FF0BF003FC6E
:100D30004FF06632444B0BF0F5FA0BF030FC4349B0
:100D40000BF013FA0BF018FC0D4604462B46224616
:100D50003FA168460BF062FE2046294600223E4B2A
:100D60000BF0DAFA3D4A3E4B0BF04EFB0BF017FC52
:100D70003C490BF0FAF905B0BDE830400BF0E8BB98
:100D800030B585B01E210B20FFF7B3FF0BF0D3FB6E
:100D90004FF066322C4B0BF0C5FA0BF000FC2B49E0
:100DA0000BF0E3F90BF0E8FB0D4604462B46224618
:100DB00027A168460BF032FE204629460022264B2A
:100DC0000BF0AAFA254A264B0BF01EFB0BF0E7FBB3
:100DD00024490BF0CAF905B0BDE830400BF0B8BBB0
:100DE00030B585B01E210C20FFF783FF0BF0A3FB6D
:100DF0004FF06632144B0BF095FA0BF0D0FB134911
:100E00000BF0B3F90BF0B8FB0D4604462B46224617
:100E10000FA168460BF002FE2046294600220E4B29
:100E20000BF07AFA0D4A0E4B0BF0EEFA0BF0B7FB13
:100E30000C490BF09AF905B0BDE830400BF088BBC7
:100E4000001001400024014066664A3F0000304126
:100E500025322E32660000000000E03F075F984C0C
:100E6000158C12400050C3472DE9F0470025044679
:100E70002E46DFF8749314E00BF05DFB07468846BE
:100E800000224B46284631460BF04CFA3A46434680
:100E90000BF0A1F90022D54B0BF03EFA05460E46A9
:100EA000641C2078F8B12E28E6D1671CD04CDFF8FE
:100EB000448315E030380BF02DFB224643460BF0FF
:100EC00031FA2A4633460BF086F905460E460022D3
:100ED0004B46204641460BF097FA044688467F1C55
:100EE00038780028E6D128463146BDE8F08770B54D
:100EF00003460020014616E001EB41042026251898
:100F000002F00F02AE70092A01D9373200E0303208
:100F10006A705A5C1209092A01D9373200E030326E
:100F2000491C0255C9B25A5C002AE5D101EB4101C6
:100F3000425470BDA0F10A01052901D8373000E004
:100F40003030C0B27047F0B500220B4614460A603C
:100F50000AE0C11700EB117525F00F01401AFFF7E9
:100F6000E9FF9854521C28110028F2D1012A04D01C
:100F7000032A08D0052A0CD010E00020FFF7DAFF82
:100F8000587002220AE00020FFF7D4FFD870042234
:100F900004E00020FFF7CEFF587106220021501E0A
:100FA00002EBD27505E05E5C1F5C5F541E54491C69
:100FB000401EB1EB650FF6DB9C54F0BDF0B500228E
:100FC0000B4614460A600AE0C11700EB117525F0C4
:100FD0000F01401AFFF7AEFF9854521C2811002849
:100FE000F2D1012A04D0032A08D0052A0CD010E03F
:100FF0000020FFF79FFF587002220AE00020FFF751
:1010000099FFD870042204E00020FFF793FF587185
:1010100006220021501E02EBD27505E05E5C1F5CCB
:101020005F541E54491C401EB1EB650FF6DB9C5407
:10103000F0BD0346002002460AE0392901D83039C4
:1010400000E05739C9B201EB0010521CC0B2D2B255
:10105000995C0029F1D1704710B50022134609E0D0
:1010600003EB83035B00303B10F8014B521C23441D
:10107000DBB2D2B28A42F3D3184610BD02780B78A5
:1010800003700A7070472DE9F0410D4600240A21D3
:1010900007E0024690FBF1F001FB102230322A55A6
:1010A000641C0028F5D1804605F8048046462F19B7
:1010B00004EBD47C05E0B91B491EA819FFF7DEFF3D
:1010C000761CB6EB6C0FF6DB05F80480BDE8F0810A
:1010D00070B5002319E0CC5C250904F00F06092D3A
:1010E00001D9372500E0302505EB141400F8134032
:1010F000CC5C092E04F00F0401D9373400E0303401
:1011000000EB43055B1C6C70DBB29342E3D300EB56
:1011100043000021817070BD0021092801D83030C2
:1011200004E0A0F10A02052A01D83730C1B208460E
:10113000704770B50C46050004D01CB10AF0C6FF1C
:1011400018B112E04FF0FF3070BD6FF0010070BDBC
:10115000010900F00F030846FFF7DEFF2070184674
:10116000FFF7DAFF6070A41C6D1C28780028EFD10F
:10117000207070BD70B586B016460D460446142228
:101180001DA168460AF05AFF00200A2E05D1002C46
:1011900003DA2D2064422870012069462246B4FB00
:1011A000F6F406FB14228A5C2A54401C002CF5D16C
:1011B0000021295429782D2905D00022411E01EB58
:1011C000D171831809E00122F8E7981A2844AC5C31
:1011D00010F8016DAE540470521CB2EB610FF4DDD7
:1011E00006B0284670BD00000000244000004840C2
:1011F0009A9999999999B93F3031323334353637C4
:1012000038394142434445460000000010B504F01F
:10121000BFFE4FF48034204604F0D3FE04F0FEFEFF
:1012200001282CD1102005F02FFF022005F01CFF13
:10123000002004F028FF002004F033FFA01104F088
:1012400029FF4FF4E011204604F006FF012004F0CE
:101250000BFF392004F0CDFE0028FAD0022004F064
:1012600006FF00BF04F00AFF0828FBD1012004F0AC
:10127000C4FF0121BDE810407D2004F096BF10BDE1
:101280001FB50121084604F099FF42F20F70ADF836
:10129000040041F61F40ADF800000020ADF8060044
:1012A000ADF802004FF080446946204605F0FCF995
:1012B0001C208DF80C0001218DF80D108DF80E10FA
:1012C0008DF80F1003A804F0DAFC01221146204625
:1012D00005F0A8FC0121204605F08FFC1FBD70B56C
:1012E00001218C07204605F0B0FE00286AD00121BC
:1012F000204605F0B6FE344C0025A07B18B1FFF760
:101300005EF9A57303E0FFF75FF90120A073606940
:10131000012801DB401C6061207908B1401C20716C
:10132000A07908B1401CA071A069012801DB401C14
:10133000A061E07908B1401CE071207A08B1401C3E
:101340002072206A012801DB401C2062A07A08B1CB
:10135000401CA072607908B1401C6071E0690128EE
:1013600001DB401CE061607A08B1401C6072606A79
:10137000012801DB401C6062207B08B1401C207307
:10138000607B10B1607B401C6073E07A10B1208AF2
:10139000401C2082208A2178884201D9E57225826A
:1013A000A0780A49401CA070E078401CE0700888D2
:1013B00030F4004006D06078401CC0B26070C8288D
:1013C00000D30D8070BD0000200000204C000020E4
:1013D0007047FC490A885206FCD5FA4AC1B2121D70
:1013E0001180704770B5054686B0012144F20500B2
:1013F00004F0DBFE4FF40070ADF8100003248DF80C
:1014000012401820F04E8DF8130004A9304604F065
:10141000E0FC3015ADF8100004208DF8130004A98D
:10142000304604F0D6FC25208DF814008DF81540C8
:101430008DF8164001208DF8170005A804F01FFC58
:101440000020ADF80400ADF80600ADF80800ADF8D6
:101450000C000C20DB4CADF80A00009569462046D4
:1014600004F022FF012240F22551204604F09EFFA5
:101470000121204604F090FF06B070BD70B506F063
:10148000C2FBD04C40F22551204605F046F8E0B1B1
:10149000204604F0DBFFC2B2CC4841880B0414D4D0
:1014A0004C044FF0000304D50A2A0DD141F4004149
:1014B00011E00D2A0DD0C1F30D04C54D491C89B2B0
:1014C0002A5541807F2900D94380BDE8704006F04D
:1014D000A4BB41F480414180F7E770B50446B94DA3
:1014E0000AE04021284605F00EF80028F9D014F84B
:1014F000011B284604F0A6FF20780028F1D170BD1A
:1015000070B5B04C05464021204604F0FCFF002891
:10151000F9D029462046BDE8704004F093BF70B56D
:10152000A84E0C4605000DD170BD4021304604F098
:10153000EAFF0028F9D015F8011B304604F082FFBD
:10154000641EE4B2002CF0D170BD0020A04A014618
:101550001154401C80B28028FAD39C4841707047D7
:10156000F0B50546012187B0480404F027FE0121AB
:10157000042004F01AFE974E304604F065FE042461
:10158000ADF8104018208DF8130003208E4F8DF811
:10159000120004A9384604F01CFC0820ADF8100025
:1015A0008DF8134004A9384604F013FC0024ADF86C
:1015B00008400C20ADF80440ADF80A000095ADF8E5
:1015C0000640ADF80C406946304604F06DFE26201A
:1015D0008DF8140001208DF815008DF816408DF857
:1015E000170005A804F04BFB012240F225513046BC
:1015F00004F0DCFE0121304604F0CEFE40213046EE
:1016000004F088FF07B0F0BD734910B500200870E2
:10161000704804F01BFF6D4A6D4B5178803358546D
:10162000491C517010BD70B56A4C054640212046DA
:1016300004F069FF0028F9D029462046BDE8704033
:1016400004F000BF70B50446624D0AE04021284610
:1016500004F059FF0028F9D014F8011B284604F0C3
:10166000F1FE20780028F1D170BD70B5594E0C46BE
:1016700005000DD170BD4021304604F044FF002824
:10168000F9D015F8011B304604F0DCFE641EE4B20C
:10169000002CF0D170BD00204D4A014680324FF43D
:1016A00080631154401C80B29842FAD3474841707D
:1016B000704770B50446012186B0880404F07EFDB1
:1016C0000121092004F071FD444D284604F0BCFDC1
:1016D0002815ADF8100018208DF813000320404E97
:1016E0008DF8120004A9304604F073FBE814ADF83D
:1016F000100004208DF8130004A9304604F069FBA3
:1017000000940024ADF808400C20ADF80440ADF87A
:101710000A00ADF80640ADF80C406946284604F0D2
:10172000C3FD27208DF814008DF815408DF8164064
:1017300001208DF8170005A804F0A1FA012240F25B
:101740002551284604F032FE0121284604F024FEEB
:101750004021284604F0DEFE8EE610B52148002424
:1017600004701E4804F072FE18491F4B0A78985402
:10177000521CD0B2421C0A70802800D90C7010BDD7
:1017800070B5164C05464021204604F0BCFE0028EA
:10179000F9D029462046BDE8704004F053BE70B52C
:1017A00004460E4D0AE04021284604F0ACFE002815
:1017B000F9D014F8011B284604F044FE20780028D4
:1017C000F1D170BD00380140000801404A000020FE
:1017D000C81A0020004400402200002000480040B9
:1017E000000C014023000020481F002070B5114E5E
:1017F0000C4605000DD1E4E74021304604F083FE9D
:101800000028F9D015F8011B304604F01BFE641EB9
:10181000E4B2002CF0D1D4E70020074A01464FF48F
:1018200080631154401C80B29842FAD3034801707F
:101830007047000000480040481F00204A00002078
:1018400010B50446EBA10AF02BFC50B120460AF07B
:101850003DFC0D2805D1206918B1401C01D00120A4
:1018600010BD002010BD2DE9F04101250E460746B0
:10187000002405E0385D3038092800D90025641CB3
:1018800038460AF023FCA042F4D838460AF01EFC81
:10189000B04203D115B10120BDE8F0810020FBE783
:1018A0002DE9F04F0025E1B0A9462F460A262C4627
:1018B000D2A0FFF712FEDFA0FFF70FFEE7A0FFF7B1
:1018C0000CFEF0A0FFF709FEF5A0FFF706FEFAA058
:1018D000FFF703FEFEA0FFF700FEDFF810B40DF1E6
:1018E0003808AA46BBF800100A043AD5C1F30D0423
:1018F00040F2FE318C4200D90C46ABF800A0FCA1AE
:10190000FD480AF0CDFB08B103252AE0FBA1FA4807
:101910000AF0C6FB08B1012523E0FAA1F6480AF057
:10192000BFFB08B102251CE0F8A1F3480AF0B8FBA0
:1019300008B1042515E0F7A1EF480AF0B1FB08B1A2
:1019400005250EE0F6A1EC480AF0AAFB08B1062531
:1019500007E0F5A1E8480AF0A3FB08B1072500E07D
:101960000025082D7ED2DFE805F0AA04B2AECAAA8F
:10197000E9FDEFA1E0480AF093FB28B9EEA1DE48AB
:101980000AF08EFB00286ED0ECA101A80AF0B4FB8F
:10199000D949221F091D04A80AF050FB01AD2919DD
:1019A000284681F80CA00AF091FB002004F10C02FB
:1019B0000AE0295C2C2901D1761CF6B20D2E01D14A
:1019C00007460A26401CC0B29042F2D300211520DF
:1019D000AE467B1E19AD07E01EF800C0401C05F89E
:1019E00001C0491CC0B2C9B29842F5DB2944754612
:1019F00081F801A00021781CC0B253AB08E000BF01
:101A000015F800C0401C03F801C0491CC0B2C9B29F
:101A10009042F5D3194401A881F801A0FFF75DFDBC
:101A200001A80AF053FBC94D82B201A92846FEF76E
:101A3000FAFD01225CA92846FEF7E8FD9DF8702119
:101A400038A92846FEF7E2FDC1A0FFF746FD38A8F9
:101A5000FFF743FDC3A0FFF740FD19A8FFF73DFDC9
:101A60007DA001E02BE022E0FFF737FDC0A0FFF7EB
:101A700034FD53A8FFF731FD77A0FFF72EFDFFF7E8
:101A800064FD01A80AF022FB014601A80AF0EFFA62
:101A90005CA80AF01BFB01465CA80AF0E8FA38A82B
:101AA0000AF014FB014638A80AF0E1FA02E0B2A0FD
:101AB000FFF713FD342101A80AF0D9FA0025B9F186
:101AC000000F3FF40FAF61B00120BDE8F08F8A49ED
:101AD000A21F891D56A80AF0B1FA56A92144601F19
:101AE00001F806AC82B256A9A848FEF79CFDA8A052
:101AF000FFF7F3FC802180480AF0B9FADEE77E495F
:101B0000A21F891D42A80AF099FA42A9214442A8BD
:101B100001F806AC0B21FFF7A6FE38B1601F82B2B8
:101B200042A99F48FEF77FFD9EA000E0A1A0FFF71D
:101B3000D4FC802170480AF09AFA17E2A4A16E48FA
:101B40000AF0AEFA28B97CA16B480AF0A9FA00287D
:101B50004ED07AA147A80AF0CFFA6749221F091D83
:101B600011A800E07AE10AF069FA08EB04010EA876
:101B700081F80CA00AF0AAFAC0B25F90002004F12C
:101B80000C020BE018F800102C2901D1761CF6B2DB
:101B90000D2E01D107460A26401CC0B29042F1D357
:101BA000002115207B1E19AD08E000BF18F800C009
:101BB000401C05F801C0491CC0B2C9B29842F5DB0F
:101BC000294453AB81F801A00021781CC0B206E083
:101BD00018F80050401C5D54491CC0B2C9B2904274
:101BE000F6D319440EA881F801A0FFF776FCF3E0C4
:101BF00031E10000434A45540000000040404040AD
:101C000040404040404040404040C4FAD2D1BDF83E
:101C1000C8EBB9A4B3A7C4A3CABD404040404040EC
:101C20004040404040404040404040404040400DE7
:101C30000A000000B3B5BCD1302C22544350222CF2
:101C4000223132352E38392E31382E3739222C3187
:101C500032333435BBD8B3B50D0A0000C6BDCCA8AD
:101C60002C22544350222C223132352E38392E3139
:101C7000382E3739222C3132333435BBD8B3B50D39
:101C80000A000000C9E8B1B8BAC532333938323871
:101C9000333738393237BBD8B3B50D0A00000000EE
:101CA000CAD6BBFABAC53138353736343232323952
:101CB00031BBD8B3B50D0A00B3A7BCD2B1E0C2EBBB
:101CC0002B636A30312BBBD8B3B50D0A000000007E
:101CD000CDCBB3F6B9A4B3A7C4A3CABDA3BACDCB29
:101CE000B3F62BBBD8B3B50D0A0000004C000020A2
:101CF000CDCBB3F600000000C81A0020B3B5BCD1AC
:101D000000000000C9E8B1B8BAC50000CAD6BBFAE5
:101D1000BAC50000B3A7BCD2B1E0C2EB000000001E
:101D2000BAD3C4CF00000000C9CFBAA3000000009E
:101D3000302C2254435022005544500041542B4330
:101D4000495053544152543D0000000000F801082E
:101D50000D0A666C617368B6C1B3F6C0B4B5C4A3AE
:101D6000BA0000000A6970B5D8D6B73A2000000062
:101D70000AB6CBBFDA3A2000C4FAB5C46970B8F12C
:101D8000CABDB4EDCEF30D0A0000000000F3010857
:101D9000C9E8B1B8BAC5D2D1B1A3B4E60D0A000002
:101DA00000F20108CAD6BBFABAC5D2D1B1A3B4E6D3
:101DB0000D0A0000CAD6BBFABAC5CAE4C8EBD3D034
:101DC000CEF32CC7EBD6D8D0C2CAE4C8EB0D0A00BC
:101DD000312C225443502200FE4D0EA928465F9A12
:101DE000FEF721FC01225DA92846FEF70FFC9DF8B5
:101DF000742147A92846FEF709FCAFF2AC00FFF7B3
:101E00006CFB47A8FFF769FBAFF2A800FFF765FB83
:101E100019A8FFF762FBAFF2C010FFF75EFBAFF24D
:101E2000B000FFF75AFB53A8FFF757FBAFF2D810EB
:101E3000FFF753FB8021E8480AF019F928210EA882
:101E40000AF015F9282147A80AF011F9CDF874A174
:101E5000FFF77BFB8AE0AFF2E00085E0DE49221F5E
:101E6000091D26A80AF0EAF826A82044554600F8DD
:101E700004AC0D2226A932A80AF0E0F88DF8D5505E
:101E8000DDF8A6002F90DDF8AA0030908DF8C45040
:101E900051AA08212FA803F00EF82FA9CFA00AF00D
:101EA000ADFD51989DF8471100BA20F0FF0008439E
:101EB000369032A8FFF7C4FC002859D0CA4D002143
:101EC000286808F012FEC94B142232A9286808F0CD
:101ED000ECFC0090286808F0AEFD009818B103F003
:101EE00037FDC3A016E032A8CDF8D8A00AF0EEF86E
:101EF000014632A80AF0BBF80021286808F0F5FD79
:101F0000BA4B142232A9286808F026FC28B103F045
:101F10001FFDBDA00AF072FDD5E532A9C0A00AF0F0
:101F20006DFD8021AC480AF0A2F8C24D0122C049E3
:101F30002846FEF76BFBBE48BF4902782846FEF7ED
:101F400065FBBD49084681F80DA00AF0BFF80528D9
:101F500009D9BAA0FFF7C1FAB748FFF7BEFAAFF246
:101F60000830FFF7BAFAB8A0FFF7B7FA0025B9E4CE
:101F7000B9A0DCE510B5FFF78EFBC0A0FFF7ADFA06
:101F80000522C6A1C6A0FEF7F2FBC74C70B9C7A0D8
:101F9000FFF7A3FAAFF24031A01C0AF081F8001B52
:101FA000C1B2A01CFFF7BBFAFFF775FB0522BBA16E
:101FB000C1A0FEF7DCFB70B9C1A0FFF78EFAAFF24B
:101FC0006831A01C0AF06CF8001BC1B2A01CFFF71E
:101FD000A6FAFFF760FB0222BCA1BEA0FEF7C7FB7A
:101FE000002816D1BDA0FFF778FABFA1AE480AF0CD
:101FF00057F8BDA1401C0AF053F8BBA1401C0AF0E1
:102000004FF80B21401CFFF78AFABDE81040FFF79C
:1020100042BB10BD70B50024FFF73DFB03229FA11A
:10202000B2A0FEF7A4FB18B1B3A0FFF756FA012443
:1020300003229AA1B7A0FEF79AFB78B144F00204FC
:10204000FFF729FB032295A1B5A0FEF790FBF0B1A5
:1020500044F00404FFF71FFB204670BDA2A1924884
:102060000AF01EF80500EBD09FA1681C0AF018F8D2
:102070000646ADA0FFF731FA701B401EC1B2681CC6
:10208000FFF74DFAAFF23040FFF727FAD8E789A102
:1020900085480AF005F80500DCD0A5A1681C09F008
:1020A000FFFF0646A3A0FFF718FA701B801EC1B2FF
:1020B000A81CFFF734FAAFF26040FFF70EFAC9E749
:1020C0002DE9F04F91B000249D4D594E0494059494
:1020D000069402944FF001090394F61E85F80090CF
:1020E00086F8029027460A226CA196A00A94FEF771
:1020F0003EFB00286AD04CE296A16B4809F0D0FF65
:10210000050064D095A109F0CBFF0028F9D0047038
:102110000AAA87A1284609F0F9FF0AAA84A100208B
:1021200009F0F4FF054609F0D1FF0A2805D1294638
:1021300004A809F0E1FF8DF81A400AAA7CA100204A
:1021400009F0E4FF054686A109F0AAFF00283FD068
:102150000AAA77A1002009F0D9FF054609F0B6FFC9
:10216000092804D0284609F0B1FF0A281AD1288886
:10217000ADF8400010A809F0EBFF022812DD10A80E
:1021800009F0E6FF36280DDA86F800900B940C94DF
:102190000D9428680B9068680C90287A8DF83400AC
:1021A0008DF835400AAA62A1002009F0AFFF0AAA03
:1021B0005FA1002009F0AAFF054609F087FF0A2861
:1021C00007D0284609F082FF0B28CBE0C8E1C8E120
:1021D000BDE1C8E000FA0108C81A00207669642051
:1021E0003D25730A000000007001002088010020D6
:1021F000777269746520766964206C6F6720666108
:10220000696C65640A000000726561642076696427
:10221000206C6F67206661696C65640A00000000CD
:10222000C9E8B1B82069643D25730D0A00000000BB
:102230005700002000F30108B80100200AD4ADC007
:10224000B42069643D000000CAFDBEDDD2D1B1A357
:10225000B4E60D0A0000000076696420BBF2D5DF09
:10226000494420CAE4C8EBD3D0CEF32CC7EBD6D870
:10227000D0C2CAE4C8EB0D0A00000000C9FAB2FAE5
:10228000C9CC3AC9EEDBDACAD0B3B5BCD1BFC6BC43
:10229000BCD3D0CFDEB9ABCBBE0D0A004F4B000094
:1022A00041542B43474D4D00481B0020C4A3BFE9B8
:1022B000D0CDBAC53A00000041542B4347534E00DD
:1022C000B2FAC6B7D0F2C1D0BAC53A002B434E55C8
:1022D0004D00000041542B434E554D00B1BEBBFA9A
:1022E000BAC5C2EB3A0000002200000041542B4363
:1022F00050494E3F00000000C7EBBCECB2E9CAD623
:10230000BBFABFA8CAC7B7F1D3D0B2E5C8EB0D0A74
:102310000000000041542B434F50533F0000000089
:1023200041542B4353510000D4CBD3AAC9CC3A001B
:102330002C000000D0C5BAC5D6CAC1BF3A00000003
:102340002400002041542B43474E535453543D31F5
:10235000000000004750524D430000002A000000DA
:10236000410000001ED12888ADF83C00A8788DF807
:102370003E000FA809F0ECFE492813DB0FA809F076
:10238000E7FE88280EDC86F801900A2107A809F0EC
:102390006EFE28680790686808902889ADF82400C8
:1023A0008DF8264007A809F091FEFE4D0A2825D198
:1023B0000BA809F08BFE092820D1707801281DD1C7
:1023C000307801281AD1A5F8274007986861089845
:1023D000A861BDF82400A8830B98C5F81F000C98CD
:1023E000C5F823009DF8340085F8270007A9EEA062
:1023F0000AF004FB0BA9F0A00AF000FB3470747023
:102400000AAAAFF2D401002009F080FE0AAAAFF2B6
:10241000E001002009F07AFE009009F057FE05283F
:102420002DD8E9A1009809F03BFE40B3C5F829403A
:10243000A5F82D40A046009809F048FE0246D9486C
:1024400000993630834609F0F9FD009809F03EFE08
:10245000284480F83680009809F07AFE4200D1487E
:10246000DAA1293000900AF0D9FA009809F02EFE7E
:102470002844594680F82980D5A00AF0BFFA0AAA54
:10248000AFF25411002009F041FE834609F01EFE10
:1024900020B3584609F01AFE06281FD8CAA158468C
:1024A00009F0FEFDD0B1C5F82F40A5F83340A04695
:1024B00085F83540584609F009FE0246B9485946A4
:1024C0002F30834609F0BAFD584609F0FFFD284435
:1024D000594680F82F80C2A00AF090FA0AAAAFF2FB
:1024E000B011002009F012FE804609F0EFFD062829
:1024F00005D1414602A809F0FFFD8DF80E4002A863
:1025000009F0E4FD06281FD104A809F0DFFD0A2820
:102510001AD11421A34809F0AAFDBDF80C002880A7
:10252000BDF80A006880BDF80800A880BDF810005A
:10253000E880BDF812002881BDF8140068812C7372
:102540009849ABA00AF05AFAFFF7A5F80EE0ACA143
:10255000284609F0A5FD20B1AAA0FEF7BEFFF3E7CB
:10256000AA469AF8000003287FF6C6AD8AF80090C4
:10257000B4700A2F03D3A7A00AF040FA09E07F1C29
:10258000FFB20A22AFF2EC21A7A0FEF7F0F8002874
:10259000EFD111B00120BDE8F08F10B50A22AFF2E3
:1025A0000431A1A0FEF7E3F80A22AFF21031A2A095
:1025B000FEF7DDF8A4A0FEF790FF642003F0E6FA32
:1025C0000A22AFF22831A4A0FEF7D1F8BDE81040EE
:1025D000FFF761B82DE9F0438BB00546006808901D
:1025E000686809902889ADF828006E480E461430B6
:1025F00009F06CFD6B4C4FF000090A2805D104F17D
:102600001F0009F063FD092820D098A00AF0F6F910
:10261000C4F81490C4F81890A4F81C9084F81E9084
:10262000C4F81F90C4F82390A4F82790286860612C
:102630006868A0612889A0833068C4F81F007068AA
:10264000C4F82300307A84F82700A9E02888ADF880
:102650000000A8788DF802003088ADF80800B5F8C1
:102660000300ADF80C007088ADF81000A18AADF839
:102670000410A17D8DF80610B4F81F10ADF81410E9
:10268000B4F81710ADF81810B4F82100ADF81C001C
:10269000A046684609F05CFD044601A809F058FD13
:1026A00084420AD103A809F053FD044606A809F0A4
:1026B0004FFD241A19D5644217E0684609F048FD19
:1026C000044601A809F044FD201A00D54042022822
:1026D0003BDC03A809F03CFD044606A809F038FDE0
:1026E000201A00D54042C0F13C0402A809F030FD98
:1026F000074605A809F02CFD87420AD104A809F075
:1027000027FD074607A809F023FD3A1A19D55242BA
:1027100017E002A809F01CFD074605A809F018FDFE
:10272000381A00D5404202280FDC04A809F010FD39
:10273000074607A809F00CFD381A00D54042C0F141
:102740003C02032C01DA032A06DB4BA00AF056F9FF
:1027500000200BB0BDE8F0834AA00AF04FF9C8F89A
:102760001490C8F81890A8F81C9088F81E90C8F823
:102770001F90C8F82390A8F827902968C8F814106B
:102780006968C8F818102989A8F81C1031684046F3
:10279000C8F81F107168C0F82310317A80F827102C
:1027A0000120D6E7C81F00206C6F6E6769747564DE
:1027B000653A25730A0000006C617469747564657C
:1027C0003A25730A000000002E0000002564000076
:1027D0007370656564203D202573206B6E0A0000D0
:1027E000636F75727365203D202573A1E30A0000B5
:1027F0006770735F74696D653A2025730A00000085
:10280000560000000D0AB6A8CEBBCAA7B0DC0D0A60
:102810000000000047505320434C4F534520464191
:10282000494C45440A00000041542B43474E535441
:1028300053543D300000000041542B43474E535049
:1028400057523D310D0A000067707320696E69743C
:102850002E2E2E2E0D0A000041542B43474E53536B
:1028600045513D22524D43220D0A00006770735FAF
:1028700072657365740A0000475053204552524FE9
:10288000520A00004750532044415441204F4B0A04
:102890000000000010B5D74900200C224870D6A1D6
:1028A000D8A0FDF764FFBDE81040DAA0FEF715BE22
:1028B00010B5DB4C0021206808F017F9206808F0FB
:1028C000FCFA10B9D7A00AF099F8DBA008F04CFB8D
:1028D00010B9DDA00AF092F80B22D7A1206807F00A
:1028E0009EFE002804D1BDE81040DCA00AF086B8A6
:1028F00010BD2DE9F041BF4C0025A0680A2829DB56
:102900000222DBA1BFA0A560FDF731FF0422DBA1FD
:10291000DCA0FDF72CFF0422DDA1DEA0FDF727FFE0
:102920000422DBA1DFA0FDF722FF0422D8A1E0A052
:10293000FDF71DFF0422D6A1E0A0FDF718FF0A2233
:10294000D3A1E2A0FDF713FFE3A0FEF77BFEE5A015
:102950000AF054F80422CEA1E6A0FDF708FF58B112
:10296000EFA1F44809F09CFB002838D00422C0A154
:10297000A4A0FDF7FCFE66E0A570EFA0FEF7ADFD9C
:10298000F14F01263E70F1A1EA4809F089FB08B138
:10299000F2A005E0F5A1E74809F082FB28B1F8A014
:1029A000FEF79BFD6670A56015E0F9A1E14809F00E
:1029B00077FB08B1FAA005E0FDA1DE4809F070FB45
:1029C00030B1FDA0FEF789FDA068401CA06002E0C8
:1029D00038780A28D7D9A068401CA06033E0FAA054
:1029E000FEF77BFDFFF76CFBA068411CA16002288D
:1029F00029DB03229EA183A0A560FDF7B8FE042277
:102A00009EA1A0A0FDF7B3FE0422A1A1A1A0FDF705
:102A1000AEFE04229EA1A3A0FDF7A9FE04229CA164
:102A2000A3A0FDF7A4FE042299A1A4A0FDF79FFE98
:102A3000082297A1A5A0FDF79AFEA7A0FEF702FE27
:102A4000A8A009F0DBFFBDE8F041FEF724BE10B5F9
:102A5000042287A16BA0FDF78AFE042287A189A02A
:102A6000FDF785FE04228AA18AA0FDF780FE0422DC
:102A700087A18CA0FDF77BFE042285A18CA0FDF729
:102A800076FE042282A18DA0FDF771FE082280A1AE
:102A90008EA0FDF76CFE90A0FEF7D4FDCEA009F04D
:102AA000ADFF54490020487010BD70B5CE4D0446AE
:102AB0000120287006E0CDA19E4809F0F1FA08B186
:102AC000012070BD2878A042F5DD002070BD70B5F2
:102AD000002410E003460A4604E01E78B54205D102
:102AE000521C5B1C1578002DF7D102E015F0FF0F8A
:102AF00000D1641C401C0278002AEBD1204670BD36
:102B00002DE9F0419AB000278DF86070BA4E444C20
:102B1000804607603D463021684609F0A8FA18AAA9
:102B20000021306805F090FE2068C168302960D32C
:102B3000303907F0DAFFB14B30220CA9206807F0DA
:102B40000BFE80B102F004FF0A2F08DDFFF7B0FE94
:102B5000306805F04FFF00201AB0BDE8F0817F1CFF
:102B6000A7A009F04BFF2068C168303907F0BDFF0E
:102B7000206808F0A2F9306805F03CFFA5A00E22FD
:102B80000088ADF80000A4A00DF149010088ADF85F
:102B900002000D9801909DF838008DF808009FA064
:102BA0000088ADF809009DF83C008DF80B00BDF8D9
:102BB0003D00ADF80C009DF83F008DF80E00BDF80B
:102BC0004000ADF80F00BDF84200ADF81100BDF8AF
:102BD0004400ADF813009DF846008DF815009DF8EF
:102BE00047008DF816009DF848008DF8170006A8DC
:102BF00016E131E15C000020302C20434C4F53455E
:102C0000204F4B0041542B434950434C4F53453DBB
:102C100030000000636C6F73652073680D0A00005C
:102C2000740100206F66666C696E65206461746172
:102C300020636C6561720A00303A6F66666C696E7B
:102C4000652E7478740000000A64656C65746520F4
:102C50007375636365737366756C0A000A72656FDA
:102C600070656E207375636365737366756C0A00B7
:102C7000434C4F5345204F4B0000000053485554E0
:102C8000204F4B0041542B434950534855540000AA
:102C90004F4B000041542B4347434C4153533D227B
:102CA0004222000041542B43474154543D3100001F
:102CB00041542B4349504D55583D310041542B430D
:102CC0005354543D22434D4E4554220041542B430E
:102CD000494943520000000041542B434946535296
:102CE0000D0A0000C1ACBDD3D2D1BEADD6D8D6C37B
:102CF0000000000041542B43495053544152543D6D
:102D0000302C22544350222C223131382E31373886
:102D10002E38342E313835222C3930303000000036
:102D2000302C20414C524541445920434F4E4E4592
:102D300043540000481B0020D5FDD4DAB7A2C6F0EA
:102D4000C1ACBDD30D0A000026000020302C20436A
:102D50004F4E4E454354204F4B000000D0C5BAC5DE
:102D600030C1ACBDD3B3C9B9A60D0A00302C204187
:102D70004C5245415920434F4E4E454354000000AC
:102D8000D0C5BAC530D2D1BEADC1ACBDD30D0A00DD
:102D9000302C20434F4E4E454354204641494C0071
:102DA000D0C5BAC530C1ACBDD3CAA7B0DC0D0A00CE
:102DB0004552524F52000000D0C5BAC530C1ACBD1B
:102DC000D3B3F6B4ED0D0A006970B5D8D6B7CEDE30
:102DD000D0A70D0A00000000C1ACBDD3D2D1BEAD5A
:102DE000D6D8D6C30A0000002D000020302C205376
:102DF000454E44204F4B0000040000208801002075
:102E00006F66666465636F64655F6572726F720A90
:102E100000000000333400002B000000444100009B
:102E200009F00CF9DDF85700CDF82600BDF85B007D
:102E3000ADF82A00FF208DF82C008DF82D00EE2033
:102E40008DF82E00C5EB051000EB451101EB0800D5
:102E50002F22694609F0F2F86D1C142DFFF65BAEC7
:102E6000012079E62DE9F0478EB000218DF8301071
:102E700000EB8001012000EB8104FD48FD4BFE4E7C
:102E8000C168186825464FF064084FF4617741B176
:102E9000012973D10CAA00219A4605F0D5FCB94648
:102EA00066E00CAA00219A4605F0CEFCB9462DE05A
:102EB00094FBF8F108FB114018B92146EFA009F086
:102EC0009DFDF14F05EB45000101641C386807F0DA
:102ED0000CFEEE4B30226946386807F03DFC10B11D
:102EE000EBA009F08BFD3068C16807F0FEFDE74BF1
:102EF00030226946306807F0D8FC0746306807F092
:102F00009AFD17B1E6A009F079FD6D1C4D45CFDDA6
:102F100030E000BF94FBF8F108FB114018B92146DE
:102F2000D6A009F06BFDE34F05EB45000101641CE1
:102F3000386807F0DAFDD54B30226946386807F06B
:102F40000BFC10B1DCA009F059FD3068C16807F036
:102F5000CCFDCE4B30226946306807F0A6FC074610
:102F6000306807F068FD17B1D7A009F047FD6D1C68
:102F70004D45CFDDDAF8000005F03CFD0EB0BDE8B0
:102F8000F0872DE9F0418EB000218DF83010B8495E
:102F9000B84E00EB8000CA686FF0120101EB8005AB
:102FA000B54C30683AB1012A5ED10CAA002105F077
:102FB0004BFCC04F53E00CAA002105F045FCB24F7A
:102FC00025E000BF05EB45000101386807F08DFDE5
:102FD000AE4B30226946386807F0BEFB10B1ACA09A
:102FE00009F00CFD2068C16807F07FFDA74B302277
:102FF0006946206807F059FC8046206807F01BFDF1
:10300000B8F1000F02D0A6A009F0F8FC6D1C142D39
:10301000D8DD26E005EB45000101386807F065FDC5
:103020009A4B30226946386807F096FB10B1A2A08F
:1030300009F0E4FC2068C16807F057FD934B30228B
:103040006946206807F031FC8046206807F0F3FCF1
:10305000B8F1000F02D09CA009F0D0FC6D1C142D1B
:10306000D8DD306805F0C6FC0EB076E52DE9F04FEE
:103070009BB000267E4D8DF86460DFF8F8A1A8654E
:1030800006600DF1490034460DF1180B4FF0FF08B2
:103090004FF0EE0918903021684608F0E8FFE86D1F
:1030A000204400EB40000701E86810B1012818D166
:1030B00079E019AA0021DAF8000005F0C5FB3946CD
:1030C000714F386807F011FD704B30220CA9386839
:1030D00007F042FB08B181A079E0DAF8000005F0C2
:1030E00089FCAFF2D0200088ADF80000AFF2D82004
:1030F0000088ADF802000D9801909DF838008DF819
:103100000800AFF2E8200088ADF809009DF83C0007
:103110008DF80B00BDF83D00ADF80C009DF83F00A8
:103120008DF80E00BDF84000ADF80F00BDF842006C
:10313000ADF81100BDF84400ADF813009DF846004D
:103140008DF815009DF847008DF816009DF8480091
:103150008DF817000E225846189908F06FFFDDF819
:103160005700CDF82600BDF85B008DF82C80ADF837
:103170002A008DF82D808DF82E90C4EB0410A96DD7
:1031800000EB441008442F22694608F057FF641CE6
:10319000142C80DBE86DB0F55C7F1BD01430E86543
:1031A0001BB0BDE8F08F19AA0021DAF8000005F085
:1031B0004BFB39463F4F386807F097FC334B3022C2
:1031C0000CA9386807F0C8FA002886D047A009F093
:1031D00015FC82E7EE65E3E72DE9F04F244C254F1F
:1031E00000252069ADF56D7D4FF46B7601281BD06D
:1031F00021480068C168B1F5707F38D33FA009F05D
:10320000FDFB0120E07020792D2800D32571207965
:10321000401C2071C0077FD0607801287DD0FFF767
:1032200068FB0DF56D7DBCE7DFF8E8804FF4487270
:10323000DFF854A0D8F80000DFF878B0411E9142C2
:103240006CD220792D2800D325712079401C207163
:10325000C00701D1FEF734FF6078012867D0FFF77F
:1032600048FB60692D28DCDB6561256157E0AEE134
:103270005C00002004000020740100206F666C6177
:1032800067203D2025640A006C0100208801002091
:103290006F666672656164315F6572726F7200009D
:1032A000775F6F66666C696E655F305F6572726FBF
:1032B00072000000680100206F6666656164305F1F
:1032C0006572726F72000000775F6F66666C696E80
:1032D000655F315F6572726F7200000072656164D4
:1032E000315F6572726F720A00000000726561647E
:1032F000305F6572726F720A000000006F66666C64
:10330000696E65206C656E67746820697320256C32
:10331000640A00003C000020D8E0DAE0AFE0C8F822
:103320000050E06800287ED0012876D09FE0012080
:103330000AF01AF85FEA000971D06846FFF796FEB6
:103340004A464FF46B71684601F0F1FDF849484672
:10335000FFF7BDFB142809D06069401C6061F5A02F
:1033600009F04CFB484609F0D7FF7AE7606B042868
:1033700003DB6069FFF705FE46E00322F0A1F1A040
:10338000FDF7F5F920B3E06B052802DB2C20E5639F
:103390006061E06B401CE063606B401C6063EEA00A
:1033A00009F02CFB5FF000061DF80600FEF73BF964
:1033B000761CB6F56B7FF7DB0322EDA1EEA0FDF7DF
:1033C000D6F9A0B1E06B032817DBFFF740FB1BE049
:1033D000606B401C002660631DF80600FEF723F9B1
:1033E000761CB6F56B7FF7DBFEF755F905E0E6A036
:1033F00009F004FB6570FFF77CFA0520FFF755FB29
:1034000010B9606B0328B1DD65636169E4A0491CF4
:10341000616109F0F3FAA5E705E014E0FFE7E3A036
:1034200009F0ECFA1DE7ECAA0021386805F00CFA67
:10343000E2A007F099FD0B22E0A1DAF8000007F006
:10344000EEF8E1A00EE0ECAA0021386805F0FCF9E6
:10345000E2A007F089FD0B22E0A1DBF8000007F0F5
:10346000DEF8E1A009F0CAFA386805F0C3FA4FF4B3
:10347000FA60E56302F08AFBFFF70CFAD1E64646F4
:103480009042FBDBDCA009F0B9FA6069FFF7EAFCC7
:10349000DCA009F0B3FA35602561E06810B10128BD
:1034A00008D010E0C5A007F05FFD0B22C3A1DAF839
:1034B000000006E0C9A007F057FD0B22C7A1DBF80A
:1034C000000007F0ACF8E5636561AAE6FEF7F8FDD9
:1034D000A7E6E06A2E2800DBE5626846FFF710FBEE
:1034E000012009F041FF5FEA00096CD00246B046B6
:1034F0003146684601F01BFD8D494846FFF7E7FA63
:10350000142817D0C3A009F079FAA06B0A280ADBA7
:10351000A563ECAA0021386805F096F9FFF7C8F911
:10352000386805F067FAA06B401CA063484609F0B4
:10353000F3FE76E66E46032281A182A0FDF717F91D
:10354000C8B1206B401C2063B7A009F057FA0027D0
:10355000F05DFEF768F87F1C4745F9DB032284A184
:1035600085A0FDF704F9D8B1206C03281EDB256483
:10357000FFF76DFA21E0FEF78EF8206B401C206308
:10358000AFA0E16A09F03AFA0027F05DFEF74BF8C8
:103590007F1C4745F9DB0520FFF787FA50B10CE0A7
:1035A00079A009F02BFA6570FFF7A3F9E06A401ED5
:1035B000E06202E0206B0328BDDDE06A401CE062AF
:1035C000FEF769F8B2E779A009F018FA29E6303970
:1035D000B1F5647F0BD8A563ECAA0021386805F02B
:1035E00033F9FFF765F9386805F004FA19E698A091
:1035F00009F004FAE570607801287FF467AFFFF7FF
:1036000049F963E710B58CB00C460188ADF8181085
:103610004188ADF81C108188ADF82010C188ADF844
:1036200024100189ADF828104089ADF82C0006A8B7
:1036300008F08EFD024687A1684609F0EFF907A859
:1036400008F086FD024683A101A809F0E7F908A861
:1036500008F07EFD02467FA102A809F0DFF909A863
:1036600008F076FD02467BA103A809F0D7F90AA865
:1036700008F06EFD024677A104A809F0CFF90BA867
:1036800008F066FD024673A105A809F0C7F969466E
:10369000204608F0F7FC01A9204608F0F3FC02A937
:1036A000204608F0EFFC03A9204608F0EBFC04A933
:1036B000204608F0E7FC05A9204608F0E3FC0CB022
:1036C000002010BD2DE9F04F87B088460188ADF885
:1036D00004104188ADF808108188ADF80C10C1883D
:1036E000ADF800100189ADF810104089ADF8140054
:1036F0009146002601A808F02BFD074602A808F015
:1037000027FD054603A808F023FD044605A808F098
:103710001FFD834604A808F01BFD8246B9F1000F87
:1037200003D0B9F1010F01D0FFE097E09BE000006A
:10373000C400002064617461206572720A00000098
:103740003E00000041542B43495053454E443D3008
:103750002C393430000000006F6E6C696E65207388
:10376000656E64636D64206572726F720A0000009A
:10377000434C4F534544000041542B43495053544C
:10378000415455533D3000006F6E6C696E65206882
:103790006173206265656E20636C6F7365640A00F7
:1037A000256420D2D1B7A2CBCD0A00006D616C6C2C
:1037B0006F63206661696C65640A0000303A6C6F63
:1037C00067312E7478740000636C6F7365206461D8
:1037D00074615F6C6F675F310A000000303A6C6F94
:1037E000672E747874000000636C6F7365206461E9
:1037F00074615F6C6F670A00B7A2CBCDB3ACCAB17E
:103800000A000000CAFDBEDDD0B4C8EBC0EBCFDFBC
:103810000A0000006F66666C696E65206461746101
:10382000206572726F720A006F66666C696E652041
:1038300073656E64636D64206572726F720A000056
:103840006F66665F666C6167203D2025640D0A0027
:103850002E0A00002530325800000000684608F0AB
:1038600077FC083003E0684608F072FC801D0646CD
:1038700017285ADD183E641C0D2D56D2DFE805F0DE
:1038800055070C23282D32373C41464B50001F2C46
:103890004BDD0124022548E0B80705D1642097FBE1
:1038A000F0F100FB117048B94FF4C87097FBF0F1CC
:1038B00000FB117010B11C2C02DC36E01D2C34DD35
:1038C0000124032531E01F2C2FDD012404252CE0E9
:1038D0001E2C2ADD0124052527E01F2C25DD0124CF
:1038E000062522E01E2C20DD012407251DE01F2CCB
:1038F0001BDD0124082518E01F2C16DD01240925F5
:1039000013E01E2C11DD01240A250EE01F2C0CDD16
:1039100001240B2509E01E2C07DD01240C2504E001
:103920001F2C02DD012425467F1C3246F8A14046AB
:1039300009F074F85246F6A108F1020009F06EF899
:103940005A46F3A108F1040009F068F82246F0A1F4
:1039500008F1060009F062F82A46EDA108F1080016
:1039600009F05CF83A46EAA108F10A0009F056F8B5
:10397000012007B015E430B59FB0002401940294F3
:103980000394049405940694079414AD089401F0EC
:103990005FF943F2343001F064F9002001F065F979
:1039A000DD48406E01F068F944F64200ADF82400AD
:1039B000DA4808F08BFB0C280DD1002203A9D74868
:1039C000FFF780FE06A903A8FFF71CFE01AA0C2141
:1039D00006A801F070FA0198CDF82600BDF808009D
:1039E000ADF82A0009AA22210BA801F016FA034615
:1039F0000BAA222114A8009401F042F91FB0284616
:103A000030BD2DE9F041C44C0027A06A05282FDA0B
:103A1000607808B9FEF76DFFA06A401CA06260786C
:103A2000012826D1FFF7A7FF06460822AFF2F021B2
:103A3000BBA0FCF79CFE00281BD10025705DFDF7A4
:103A4000F2FD6D1CEDB2142DF8D31A20FDF7EBFD3D
:103A5000B7A0FDF742FDA762E1782069084308D1CD
:103A60004FF47A7002F092F8BDE8F041FEF712BF11
:103A7000A762BDE8F0812DE9F043AFB0252401F045
:103A8000E7F843F2343001F0ECF8002001F0EDF8F3
:103A9000A2492522803919A808F0D0FA2CA8009054
:103AA0004C2301AA214619A801F02BF9814601F007
:103AB000E0F8994D01466866A2A008F09FFF686E85
:103AC0001890A54808F002FB0246A34914A808F084
:103AD000B5FA0026A14F8DF85D602DAA31463868F1
:103AE00004F0B2FE9E4C0021206806F0FEFF9D4BC4
:103AF000142214A9206806F0D8FE8046206806F03B
:103B00009AFF5FEA080004D001F022FF96A008F0B7
:103B100075FF9BA0FDF7E1FC18960021206806F0D8
:103B2000E4FF904B142214A9206806F015FE20B182
:103B300001F00EFF8CA008F061FF386804F05AFF16
:103B400092A0189908F05AFF14A995A008F056FF02
:103B500023AA494601A801F00CF92AA9686E00F0D1
:103B600075FF6D4A042168322AA801F0E0F96A491C
:103B700090A0683108F042FF2FB0BDE8F083F0B5A7
:103B800006468E4C0120654FA1B000252070803F75
:103B90002BE08BA18D4808F083FA20B3AFF6847137
:103BA00008F07EFAF8B1811C5C482822803808F0C1
:103BB00045FA5A4887F828506A462821803801F08B
:103BC000B6F983A1684608F06BFA60B182A1684635
:103BD00008F066FA38B182A008F010FFFFF74BFF3B
:103BE000012021B0F0BD207810B1C0B2B042D0DDCC
:103BF00025700020F5E710B5CCB001F029F843F2AC
:103C0000343001F02EF8002001F02FF845F2452065
:103C1000ADF81801504941A808F06EFA4E4808F076
:103C200055FAC0F111044C4808F050FA41A9084473
:103C3000224672A108F002FA112241A90DF58D70F9
:103C400008F0FCF900248DF82B4146AA802101A838
:103C500001F07FF8034601AA802121A8009401F019
:103C60000FF83D4967A008F0C9FE21A84CB010BD6F
:103C70002DE9F041284D42F21071E869884204DDD7
:103C800063490968B1F5617F06DB401CE86168782B
:103C9000012803D0FEF72DFEE869EAE6A8695D4F2A
:103CA000012802D038781428F6D3FFF7A4FF06467F
:103CB0004FF000080A22AFF2785119A0FCF757FD27
:103CC00010B3AFF2944008F099FE686A401C686235
:103CD000AFF27C5008F092FE0024305DFDF7A3FCAB
:103CE000641C202CF9DB1A20FDF79DFC0322AFF2A7
:103CF0008051AFF27C50FCF73AFD30B1686A03287E
:103D000004DBFEF7A4FEA7E086E095E09CE000005F
:103D100025303264000000005C000020912000206B
:103D200041542B43495053454E443D300000000060
:103D30006865617274206861732073656E740D0A22
:103D4000000000007669645F7265616C3D30782523
:103D50003038780A00000000B8010020040000207C
:103D600070010020880100207772697465207669EF
:103D700064206C6F67206661696C65640A000000EE
:103D80007669642073617665640D0A007669645F04
:103D90006C6F672E7669643D3078253038780A007C
:103DA0007669645F6C6F672E6465766963653D252F
:103DB000730A0000523A25730A0000002C0000200C
:103DC0002B524543454956452C302C00481B0020BA
:103DD0003431353200000000323130300000000054
:103DE00072656720616E737765722061636B6F77B0
:103DF0006E6C65646765640D0A00000046464646C1
:103E000000000000D7A2B2E169643D25730A0000FA
:103E10003800002048000020286A401C0024286246
:103E2000305DFDF700FC641C202CF9DB1A20FDF747
:103E3000FAFB0120387007E0AFF2B46008F0DEFD55
:103E400085F80180FEF755FD0520FEF72EFE18B916
:103E5000286A05287FF72EAFC5F820801CE71CB51F
:103E600004460069401E10F1020F04D2F9492046B1
:103E700008F034F908B100201CBDF7A0216908F052
:103E8000BDFDFD4920694866694600F0DFFDFA4A3C
:103E900004216832684601F04AF8F749F7A0683112
:103EA00008F0ACFD01201CBD2DE9F047F24F4FF0AA
:103EB0000108FA4D387886B0444658B12868B428CD
:103EC0005EDBF7A008F09AFD2C60FFF79AFD06B0C4
:103ED000BDE8F087AFF29C6008F090FDF14E05AAB6
:103EE0000021306804F0B0FCDFF8BC930021D9F861
:103EF000000006F0FAFDED4B14226946D9F80000E7
:103F000006F02AFC18B101F023FDE9A000E0EEA0C4
:103F100008F074FD306804F06DFD0026DFF8C0A3E2
:103F2000B14600BFFFF7A4FE78B1B8F1000F0CD086
:103F30000A20FFF724FE40B13C708AF80090FDF79C
:103F4000AAFB2C60FEF7A6FC03E0761CF6B21E2E40
:103F5000E8D36846FFF783FF10B13C702C60B6E7EA
:103F6000FFF786FE0A20FFF70AFE0028AFD03C705C
:103F70008AF80090FDF78FFB2C60FEF78BFCA6E71C
:103F8000AFF2CC7008F03AFDFFF726F99FE72DE974
:103F9000F041ADF5027D0024B74D539454945694EE
:103FA0005794589459945A945B94686CFF2800D1A4
:103FB0006C64686C2021401C686401A808F057F804
:103FC00000F046FE43F2343000F04BFE002000F0DB
:103FD0004CFE686E00F050FE44F24140ADF8240003
:103FE000C048804608F0B4F80246AFF298717FA846
:103FF00008F014FD09AFBA1C02217FA800F05BFF96
:1040000040460A9408F0A4F84FF47A76002819DBA9
:10401000404608F05BF8042814D8404608F098F8A9
:10402000C11700EB9170A96C01EBA00090FBF6F2B8
:10403000A864ADA171A808F0F1FC3A1D062171A891
:1040400000F057FFAA485C9408F082F840F2E73885
:10405000B04204DAA64808F07BF8024600E0424687
:10406000A4A15CA808F0DAFC9DF8710100905CAF97
:104070009DF87031BA1CA1A173A808F0CFFC0BAA5F
:10408000042173A800F017FF9E485C9408F060F8C4
:10409000B04204DA9B4808F05BF8024600E0424672
:1040A00094A15CA808F0BAFC9DF8710100909DF8FD
:1040B0007031BA1C91A174A808F0B0FC0DF12E0269
:1040C000042174A800F0F7FE8F485C9408F040F8D3
:1040D000B04204DA8C4808F03BF8024600E0424661
:1040E00084A15CA808F09AFC9DF8710100909DF8ED
:1040F0007031BA1C81A175A808F090FC0CAA0421AB
:1041000075A800F0D8FE814808F022F84FF47A47ED
:10411000B84205DA7D4808F01BF890FBF6F200E0A3
:104120000022AFF6D0016EA808F078FC0DF1320243
:1041300002216EA800F0BFFE754808F009F8B842E9
:1041400005DA734808F004F890FBF6F200E000226C
:10415000AFF600116FA808F061FC0DF133020221E7
:104160006FA800F0A8FE6B4807F0F2FFB84205DA2E
:10417000684807F0EDFF90FBF6F200E00022AFF692
:104180002C1170A808F04AFC0DAA022170A800F0BA
:1041900092FE5448153807F099FF524E293E0A28DE
:1041A00057D306F11F0007F091FF0928F8D34122E9
:1041B000AFF6601176A808F031FCB6F81F00ADF834
:1041C0008C01B6F82100ADF89001B08CADF89401E7
:1041D000F08CADF8980163A807F0BAFF0246AFF67D
:1041E0008C1177A808F01AFC64A807F0B1FF02460A
:1041F000AFF6A01178A808F011FC65A807F0A8FF99
:104200000246AFF6B01179A808F008FC66A807F0DE
:104210009FFF0246AFF6C4117AA808F0FFFB4E22BA
:10422000AFF6D0115EA808F0F9FB8DF87A41B08A9C
:10423000ADF87C01B07D8DF87E01B6F81700ADF8C1
:104240009C01708BADF8A001B08BADF8A4015FA804
:1042500062E0E4E0B80100207669645F7265616441
:104260005F66726F6D5F646576696365203078257F
:104270003038780A000000005C0000207669645F36
:10428000666F725F646174615F6672616D655F63C2
:104290006865636B3A2025730A0000004000002027
:1042A0007E0A000004000020700100208801002028
:1042B0007265616420766964206C6F67206661694D
:1042C0006C65640A000000007265616420766964B0
:1042D000206C6F6720737563636573730A00000059
:1042E00048000020F11F0020253036580000000053
:1042F000E8000020253034580000000025732563B5
:1043000025630000EC000020F00000209E2000202B
:10431000A8200020B220002007F01AFF0246AFF6C6
:10432000CC217BA808F07AFB67A807F011FF0246B2
:10433000AFF6E0217CA808F071FB68A807F008FF41
:104340000246AFF6F0217DA808F068FB69A807F0E7
:10435000FFFE0246AFF604317EA808F05FFB06F1CF
:104360002F0007F0F5FE0246AFF2780155A808F0DD
:1043700055FBBDF85601ADF88401BDF85401ADF808
:1043800088018DF886418DF88A4106F1360007F0E4
:10439000DFFE0246AFF644315DA808F03FFB8DF822
:1043A00076414522AFF6543160A808F037FB8DF80E
:1043B000824176A901A807F065FE77A901A807F058
:1043C00061FE78A901A807F05DFE79A901A807F0B0
:1043D00059FE7AA901A807F055FE5EA901A807F0C9
:1043E00051FE7BA901A807F04DFE7CA901A807F0AA
:1043F00049FE7DA901A807F045FE7EA901A807F0A6
:1044000041FE60A901A807F03DFE5DA901A807F0E3
:1044100039FE61A901A807F035FE62A900E0F8A104
:1044200001A807F02FFE6AAA1C2101A800F043FD95
:104430000E226AA90DF1350007F000FE286DB0F5D7
:10444000617F00DB2C65286D401C2865F04807F073
:104450003DFE0C2812D1E86C01280FD1ED483268DE
:10446000026071684160B368EB4E836032607160D6
:10447000B3600473E9A0EC6408F0C0FAE54807F003
:1044800025FE0C280DD1002256A9E348FFF71AF9A2
:1044900059A956A8FFF7B6F853AA0C2159A800F05D
:1044A0000AFD5398CDF84300BDF85001ADF8470020
:1044B00009AA802113A800F06FFC034695F8440078
:1044C000009013AA802133A800F0DAFB33A80DF581
:1044D000027DBDE8F081F0B58DB000258DF830503B
:1044E000FFF755FD044643F23430ADF800004FF4B9
:1044F0002C50ADF8020060680190207A8DF8080019
:1045000044F24140ADF80A00E07A8DF80C00A08931
:10451000ADF80D00A07B8DF80F00B4F80F00ADF8DA
:104520001000B4F81100ADF81200B4F81300ADF8A3
:104530001400607D8DF81600A07D8DF81700E07DD9
:104540008DF818000E2204F118010DF1190007F082
:1045500075FDD4F82600CDF82700608DADF82B004E
:10456000FF208DF82D008DF82E00AE4CEE208DF83A
:104570002F00AD4EE06810B1012828D12AE00CAA26
:104580000021306804F060F9A84F3868C16806F06F
:10459000ACFAA74B30226946386806F086F998B124
:1045A000616D491C616501F0D3F9A2A008F026FAFB
:1045B000606D0A2808DDAFF6DC50656506F0D4FCB6
:1045C0000B22AFF6E8512AE0306804F013FA0DB080
:1045D0000120F0BD0CAA0021306804F035F99A4F93
:1045E0003868C16806F081FA914B30226946386814
:1045F00006F05BF90028E7D0616D491C616501F0A8
:10460000A7F992A008F0FAF9606D0A28DCDDAFF690
:104610005460656506F0A8FC0B22AFF6606138684F
:1046200005F0FDFFD0E72DE9F0438DB000208DF8B7
:1046300030008BA008F0E2F97A487B4E8C4DC068C0
:104640004FF46177002839D0012834D10CAA002119
:10465000306804F0F9F8DFF8D48100244FEA070944
:1046600004EB440001014746D8F8000006F03DFA8B
:104670006F4B30226946386806F06EF810B17D48FD
:1046800008F0BCF92868C16806F02FFA684B3022A0
:104690006946286806F009F90746286806F0CBF94C
:1046A0001FB17448103008F0A9F9641C4C45D7DBE1
:1046B000306804F09FF90DB0BDE8F0830CAA00212A
:1046C000306804F0C1F8DFF8808100244FEA070960
:1046D00004EB440001014746D8F8000006F005FA53
:1046E000534B30226946386806F036F818B16148F5
:1046F000283808F083F92868C16806F0F6F94C4BB1
:1047000030226946286806F0D0F80746286806F087
:1047100092F91FB15748183808F070F9641C4C45DD
:10472000D6DBC5E72DE9F04786B006460088ADF830
:1047300000007088ADF80400B088ADF80800F0887B
:10474000ADF80C003089ADF810007089ADF8140098
:10475000684607F0FDFC814601A807F0F9FC054614
:1047600002A807F0F5FC044605A807F0F1FC00F1EB
:10477000010A04A807F0ECFC804603A807F0E8FC57
:104780000746BAF13C0F03DBAAF13C0A08F1010825
:10479000B8F13C0F02DD7F1CA8F13C08172F10DD9B
:1047A000183F641C0D2D0CD2DFE805F094070C2493
:1047B000666B70757A7F84898E001F2C01DD012461
:1047C000022587E05FEA897005D1642199FBF1F247
:1047D00001FB129048B94FF4C87199FBF1F201FB4B
:1047E000129010B11C2C02DC74E01D2C72DD01242F
:1047F00003256FE01F2C6DDD012404256AE0000015
:1048000056000000004E00000000450000000000BF
:10481000C81F0020912000200420002063686563E9
:104820006B0000005C0000200400002068010020F4
:104830008801002077726974655F6C6F67305F650F
:1048400072726F72000000006C0100207772697450
:10485000655F6C6F67315F6572726F720000000098
:10486000CAFDBEDDC8ABB2BFD0B4C8EB0D0A0000B4
:1048700074010020B83200081E2C2BDD0124052510
:1048800028E01F2C26DD0124062523E01E2C21DD37
:10489000012407251EE01F2C1CDD0124082519E03A
:1048A0001F2C17DD0124092514E01E2C12DD012424
:1048B0000A250FE01F2C0DDD01240B250AE01E2C1C
:1048C00008DD01240C2505E01F2C03DD012425460D
:1048D00009F101094A46AFF6C831304608F09EF8A2
:1048E0002A46AFF6D431B01C08F098F82246AFF64D
:1048F000E031301D08F092F83A46AFF6EC31B01DC9
:1049000008F08CF84246AFF6F83106F1080008F0DE
:1049100085F85246AFF6084106F10A0008F07EF825
:1049200006B0BDE8F087017A491C0172704710B5E6
:10493000A4B0044603AA2F2100F0F9FA16AB07CB66
:104940008DE80700694645A008F058F86846FFF76B
:10495000E9FE00221DA96846FEF7B4FE20A91DA8A5
:10496000FEF750FE1BAA0C2120A800F0A4FA1B9809
:10497000C4F82600BDF87000608524B0204610BD44
:1049800070B5002506462C463046FFF7CCFFFFF7F2
:10499000CEFF0146284607F075FB641C0A2CF3DBAA
:1049A000284670BD38B500252FA13248009507F084
:1049B00077FB314CD8B16A4630A107F0A7FB6A46B5
:1049C0002FA107F0A3FB6A462DA1002007F09EFB54
:1049D0006A462BA1002007F099FB07F0B9FB216E76
:1049E000014428A0216608F009F8FCF754FE206E67
:1049F000B0F5D27F01D0002038BD0120256638BD3A
:104A000070B5244C0120002520702349194807F077
:104A100047FB10B12570012070BD20A1154807F09B
:104A20003FFB10B1257021A006E023A1114807F03B
:104A300037FB28B1257024A007F0E0FF002070BDEF
:104A400020780428E1D92570022070BD0870020A80
:104A50004A70020C8A70000EC870704774696D65E8
:104A600020697320257300002B5245434549564564
:104A70002C300000481B00205C0000203A000000A1
:104A80002C0000007265636C656E206973202564DC
:104A90000A00000029000020EC2D0008302C2053D3
:104AA000454E44204641494C00000000B7A2CBCD02
:104AB000CAA7B0DC0A000000302C2053454E442029
:104AC0004552524F52000000B7A2CBCDB4EDCEF309
:104AD0000A00000070B501005B485C4E4FF4807521
:104AE0000BD0012917D0022917D0032917D1294645
:104AF0003046BDE8704001F0DCB91021044601F0F9
:104B0000D6F98021204601F0D2F929463046BDE889
:104B1000704001F0CCB91021EBE78021E9E770BDCE
:104B200010B50121042001F040FB0121042001F017
:104B30003CFB0121042001F038FB0121102001F091
:104B400034FB0121BDE81040042001F02EBBF8B574
:104B50004020ADF8000048203B4E8DF80300694628
:104B6000304601F036F91024ADF800408DF80340CE
:104B700001258DF802506946304601F02AF980205F
:104B8000ADF800008DF803408DF8025069463046BC
:104B900001F01FF92001ADF800008DF803408DF8F9
:104BA00002506946294801F014F92020ADF80000B0
:104BB0006946304601F00DF9F8BD10B5FFF7B0FFBA
:104BC000BDE81040C3E770B50024FFF783FF1E4E19
:104BD0002021304601F06DF9002564002021304687
:104BE00001F065F94021304601F04DF908B144F07B
:104BF00001042021304601F05CF96D1C202DECDB16
:104C00000020FFF767FF40F2E7310A200200A0F121
:104C1000010080B2FAD10800A1F1010189B2F4D1FA
:104C2000A00C800000B207F075FC6FF00104224672
:104C300007F059FC224607F056FC07F0B0FCBDE82F
:104C4000704007F085BC00000008014000100140E2
:104C50008D484FF0113141600021417001700846CC
:104C600070478949488000207047874908700020B4
:104C70007047854840687047834948600020704706
:104C80002DE9F05F044603F108001FFA80F97E4F1A
:104C9000001D1FFA80F81D4692460026214678889E
:104CA000DDF828B000F0E7F8A11C484600F0E7F86E
:104CB000796821710A0A62710A0CA271090EE17108
:104CC00084F808B02A46514604F1090007F0B6F905
:104CD00004EB0801FF2201F8032C387848B1241DA9
:104CE000AD1D002002E0225C5640401CA842FAD3D1
:104CF00000E0FF2601F8026DEE2048704046BDE856
:104D0000F09F70B51346049A0C2902D24FF0FF3081
:104D100070BD5D4D01886C8849BAA14202D06FF028
:104D2000010070BDC6794168448866F31F616E68F2
:104D3000B6F1113F00D16960B0F80910083C49BADA
:104D4000118000F109012246184607F077F9204644
:104D500070BD70B5054614461088294600F08BF8E2
:104D60001122A11CA81C07F069F9E07CE87414204A
:104D700070BD70B505460088144640BA10801122F7
:104D8000A91CA01C07F05AF955F8130F44F8130F8B
:104D9000A888A080192070BD70B5054614461088FB
:104DA000294600F068F8A078A8706168E9700A0ADE
:104DB0002A71090C69712089A91D00F060F86089C9
:104DC00005F1080100F05BF8A08905F10A0100F087
:104DD00056F8A07B2873E07B6873207CA8730E22B2
:104DE00004F1110105F10F0007F028F954F81F0F25
:104DF00045F81D0FA088A880232070BD018849BAFE
:104E0000118081789170D0F80310C2F80310B0F8C7
:104E10000700A2F807000920704770B50546144640
:104E20001088294600F027F8D4F80200C5F80200DF
:104E3000E088E880082070BD10B5083913460C469C
:104E40000A4600F10801184607F0F8F8204610BDA0
:104E500070B5054614461088294600F00CF8A07875
:104E6000A870D4F80300C5F80300B4F80700A5F84B
:104E70000700092070BD020A0A7048707047087068
:104E8000000A487070470000D0000020A0F13001F7
:104E9000092901D8C8B27047A0F16101052901D8DC
:104EA000573804E0A0F14101052902D83738C0B2D3
:104EB0007047FF2070472DE9F04101EBD1714E1092
:104EC0009046044600250CE06078FFF7DFFF0746B8
:104ED0002078FFF7DBFF47EA001008F80500A41C64
:104EE0006D1CB542F0DB002108F806103046BDE825
:104EF000F0812DE9F04101EBD1714FEA6106904656
:104F00000546741E0ED46878FFF7C0FF0746287860
:104F1000FFF7BCFF47EA001008F8040005F102059E
:104F2000641EF0D5002108F806103046DFE72DE9B1
:104F3000F04116460D46804600240FE018F80400A4
:104F40006700000900F011F8F05518F8040000F0AF
:104F50000F0000F00AF8F119641C4870AC42EDDB58
:104F6000002006F815006800C1E7102802D20249A7
:104F7000085C70472A207047D4D300083D4B07C314
:104F800070472DE9FC41064600208DF804008DF89D
:104F900000006420B2FBF0F5364C6D1C6422D4E9AD
:104FA00000036946984718B19DF80000022802D016
:104FB0006D1EF3D134E0002D32DDD4E9000364220C
:104FC0006946984760B39DF800003070D4E900034B
:104FD00064226946984718B39DF800507570002701
:104FE00009E0D4E90003642269469847F1199DF865
:104FF000000088707F1CAF42F3DBAA1C3146002002
:1050000000F02EF80546D4E90003C82201A998470C
:1050100030B19DF80400854202D10120BDE8FC8139
:105020000020FBE72DE9F041124C0E460746A2682E
:10503000022120689047002504E0A268795D20687D
:1050400090476D1CB542F8D332463946002000F037
:1050500007F80146A268206890470120BDE8F0816A
:1050600010B5002302E0CC5C60405B1C9342FAD395
:1050700010BD0000D80000200120704770B5AF4C73
:105080000D464021204601F03EFA0028F9D029467D
:10509000204601F0D7F9012070BD1CB503218DF821
:1050A000001001208DF801008DF802006846FFF71E
:1050B000B9FF1CBD10B586B0FFF7EFFF01208DF8DA
:1050C00000000C208DF801006C46A11C002000F0AF
:1050D00030F9211D002000F02CF9A11D002000F066
:1050E00028F902A9112000F024F90DF10A0103208A
:1050F00000F01FF903A9112000F01BF99DF8011021
:105100006846891CFFF78EFF4FF4FA6000F03EFD01
:1051100006B010BD1CB504208DF8000001208DF8EC
:10512000010000208DF8020003216846FFF77AFF96
:105130001CBD1CB502208DF8000001208DF8010077
:1051400000208DF8020003216846FFF76BFF1CBDAD
:105150001CB504208DF8000001208DF8010003210A
:105160008DF802106846FFF75DFF1CBD1CB50321DA
:105170008DF8001001208DF801008DF802006846BE
:10518000FFF750FF1CBD1CB504208DF80000012066
:105190008DF8010002208DF8020003216846FFF718
:1051A00041FF1CBD1CB504208DF8000001208DF8C6
:1051B00001008DF8020003216846FFF733FF1CBD94
:1051C00030B585B001208DF800000C208DF801006D
:1051D0005B4806F0BDFF6C4680B2A11C00F0A9F848
:1051E00057480A3006F0B4FF80B2211D00F0A1F844
:1051F000A11D002000F09DF8524806F067FF02ACA8
:1052000040F2E735032805D84E4806F0A1FF80B2EA
:10521000214601E02146284600F08BF84948001D50
:1052200006F054FF0DF10A04032806D84548001D76
:1052300006F08EFF80B2214601E02146284600F0AC
:1052400078F84048083006F041FF03AC032806D840
:105250003C48083006F07CFF80B2214601E0214640
:10526000284600F066F8364806F072FF4CF25034DB
:10527000A04218DC32480A3006F06AFFA04212DC75
:10528000304806F065FF4FF4FA74A0420BDC2D485D
:10529000001D06F05DFFA04205DC2A48083006F03C
:1052A00057FFA04202DDFFF77DFF08E0244806F02B
:1052B0004FFF44F62061884204DBFFF764FFFFF7ED
:1052C00055FF01E0FFF744FF9DF801106846891C77
:1052D000FFF7A8FE05B030BD1A4810B5001F1A4AE6
:1052E0001A490068FFF74AFEFFF76AFFFFF721FF40
:1052F000FFF710FFBDE81040DCE61CB502208DF87A
:10530000000001208DF80100FF208DF8020003212C
:105310006846FFF787FE1CBD1CB503218DF8001001
:1053200001208DF801008DF802006846FFF77AFE33
:105330001CBD020A0A704870704700000048004017
:105340009E200020E80000207D50000879500008D1
:1053500070B506460024404D03E0641CE4B2C82C3E
:105360000FD80221284602F0C6F90028F5D03146B0
:10537000284602F07CF9002405E0641CE4B2C82C45
:1053800001D9002070BD0121284602F0B4F900289F
:10539000F3D0284602F06DF9C0B270BD70B586B08A
:1053A0000121082000F001FF01218D03284600F0B3
:1053B00005FF4FF42040ADF8140018208DF81700B9
:1053C000264E03248DF8164005A9304600F001FD55
:1053D000ADF8145048208DF817008DF8164005A937
:1053E000304600F0F6FC4FF46041304600F05FFDBF
:1053F0000020ADF800004FF48271ADF80210ADF856
:1054000004000221ADF806100121ADF80810490290
:10541000ADF80A103821ADF80C10ADF80E000720D9
:105420000D4CADF810006946204602F07BF80121D2
:10543000204602F0F4F8FF20FFF78AFF06B070BDA7
:1054400001460548028822F03802028002880A4399
:105450000280012102F0E3B800380040000C014056
:10546000FFF776BF3820FFF7EBBF3820FFF7E8BF24
:10547000F8B501214FF4867000F097FE4FF4805488
:10548000ADF8004010258DF803500320FF4E8DF835
:1054900002006946304600F09CFC2146304600F090
:1054A00006FDFB4CADF800506946204600F091FC2B
:1054B0001021204600F0FBFC8020F64CADF80000E7
:1054C0006946204600F085FC8021204600F0EFFC74
:1054D000FFF764FFF04901200860F8BDEE490120A4
:1054E0000860FF20FFF734BF70B500246FF07F45E0
:1054F000FF20FFF7B5FFFF2804D0641CAC42F7D3B0
:10550000012070BD002070BDE34910B50020086087
:10551000FFF7EAFF002802D0FFF7E0FF012010BDEF
:1055200070B505464FF6FF7401E0641EA4B2FF207B
:10553000FFF796FFA84202D0002CF6D102E00CB192
:10554000002070BDFF2070BD70B504460D46FE20E2
:10555000FFF7E6FF30B1012070BD00BFFFF7F8FE96
:1055600004F8010B2800A5F10105ADB24FF0FF00D2
:10557000F4D1FFF7EDFEFF20FFF7EAFE002070BD3B
:1055800070B50C460546FFF7AFFF08B1012070BDAE
:105590002046FFF7DDFEFD2C18D000244FF40076E6
:1055A000285DFFF7D5FE641CA4B2B442F8D3FF20F7
:1055B000FFF7CEFEFF20FFF7CBFEFF20FFF750FFE7
:1055C00000F01F00052801D0022070BD002070BD32
:1055D00070B5054616460C46FFF780FFFFF794FFAF
:1055E00008B1FF2070BD45F04000FFF7B1FE200E6E
:1055F000FFF7AEFEC4F30740FFF7AAFEC4F307208F
:10560000FFF7A6FEE0B2FFF7A3FE3046FFF7A0FECD
:105610000C2D02D1FF20FFF79BFE1F24FF20FFF778
:105620001FFF0106DED52100A4F10104E4B2F5D18B
:1056300070BD70B50546012200210A20FFF7C8FFA2
:10564000040004D110212846FFF77EFF0446FFF72F
:1056500045FF0CB1012070BD002070BD70B505463E
:10566000012200210920FFF7B3FF040004D110211B
:105670002846FFF769FF0446FFF730FF0CB1012011
:1056800070BD002070BD1FB56846FFF7E7FF10B181
:10569000002004B010BD9DF800100120B0EB911F58
:1056A00009D19DF808209DF8091000EB022008445C
:1056B00000048009EDE79DF805009DF80A1000F050
:1056C0000F0000EBD1109DF809109DF8072001F0A4
:1056D000030100EB41019DF80800800900EB820006
:1056E0009DF8062002F0030200EB8220401CC91F37
:1056F0008840CEE72DE9F843FFF7BAFE3820FFF7E0
:105700009FFE0024FF20FFF723FE641CA4B20A2C96
:10571000F8D31426614D0027002195220846FFF793
:1057200057FF0446012805D03000A6F10106B6B2A5
:10573000F2D180E02F7087224FF4D5710820FFF757
:1057400047FF4FF6FE78012820D0012200213720A4
:10575000FFF73EFF012200212920FFF739FF012832
:1057600053D8022028704646012200213720FFF737
:105770002FFF012200212920FFF72AFF040053D028
:105780003000A6F10106B6B2EED14DE000266F461C
:10579000FF20FFF765FEB855761CB6B2042EF7D38E
:1057A0009DF80200012847D19DF80300AA2843D1A3
:1057B00046464FF08048012200213720FFF708FFBE
:1057C000012241462920FFF703FF040004D03000E6
:1057D000A6F10106B6B2EED176B3012200213A203D
:1057E000FFF7F6FE40BB0026FF20FFF739FEB85555
:1057F000761CB6B2042EF7D39DF80000400601D502
:10580000062000E00420287016E00120287046469B
:10581000012200211046FFF7DBFE040004D0300017
:10582000A6F10106B6B2F3D12EB101225102102029
:10583000FFF7CEFE00B12F70FFF750FE3820FFF7C4
:10584000FFFD287810B10020BDE8F8830CB1204698
:10585000FAE7AA20F8E72DE9F04106460F48154679
:105860000078062800D049024FF40077012D4FF050
:10587000010224D01220FFF7ABFE39463046FFF775
:1058800063FE044606F500766D1E09E0000C01403B
:105890000008014000200140B0812142F4000020B6
:1058A00015F0FF0501D0002CE7D0012200210C20CB
:1058B000FFF78EFEFFF712FE2046BDE8F0811120B3
:1058C000FFF786FE0400F5D139463046FFF73CFE6F
:1058D0000446EFE770B50646364815460C46007894
:1058E000062800D04C02012D13D0012809D0012236
:1058F00000213720FFF76CFE012229461720FFF711
:1059000067FE012221461920FFF762FE04000AD03B
:105910001AE0012221461820FFF75AFE040013D195
:10592000FE2130460DE0FC213046FFF729FE6D1EBA
:1059300006F5007615F0FF0501D00028F3D0FD2113
:105940000020FFF71DFE0446FFF7C8FD204670BD8E
:1059500014282CD2DFE800F00A1C1E180E101216B4
:1059600014261A0C20222B2B242B2B2812A01CE0EF
:1059700016A01AE019A018E01BA016E01EA014E063
:1059800020A012E023A010E025A00EE028A00CE04B
:105990002AA00AE031A008E03BA006E040A004E015
:1059A00046A002E04CA000E04FA007F027B855A0A9
:1059B000FBE70000F400002066756E74696F6E20CE
:1059C0007375636365737366756C0000C7FDB6AF6E
:1059D000C6F7BAC5CEDED0A700000000D5D2B2BB54
:1059E000B5BDCEC4BCFE0000CEDEB7A8D5D2B5BDD5
:1059F000C2B7BEB600000000CEC4BCFEC3FBB7C732
:105A0000B7A80000CEC4BCFED2D1BEADB4E6D4DA95
:105A100000000000BEDCBEF8C7EBC7F300000000CA
:105A2000C7FDB6AFC6F7CEDEB7A8B9A4D7F700005A
:105A3000C3BDCCE5D0B4B1A3BBA40000BAAFCAFDCE
:105A4000CAA7B0DCD3C9D3DAB4C5C5CCD4CBD0D0C7
:105A5000B5C4D2BBB8F6B4EDCEF30000BAAFCAFD00
:105A6000CAA7B0DCD3C9D3DAD2BBB8F6B4EDCEF353
:105A7000B5C42046415420BDE1B9B9BBF2C4DAB285
:105A8000BFB4EDCEF3000000C2DFBCADC7FDB6AFC2
:105A9000C6F7C3BBD3D0B9A4D7F7C7F8000000003E
:105AA000C7FDB6AFC6F7C9CFC3BBD3D0BACFB7A86F
:105AB000B5C42046415420BEED000000BAAFCAFD77
:105AC000B1BBBEDCD3C9D3DACEC4BCFEB9B2CFED14
:105AD000BBFAD6C600000000CEC4BCFEB6D4CFF3DD
